:020000040800F2
:10000000B008002001010008A71100089F10000897
:10001000A51100082702000871190008000000005F
:10002000000000000000000000000000B9170008F8
:100030002902000800000000A9110008BB170008F1
:100040001B0100081B0100081B0100081B01000820
:100050001B0100081B0100081B0100081B01000810
:100060001B0100081B0100081B0100081B01000800
:100070001B0100081B0100081B0100081B010008F0
:100080001B0100081B0100081B0100081B010008E0
:100090001B0100081B0100081B0100081B010008D0
:1000A0001B0100081B0100081B0100081B010008C0
:1000B0001B0100081B0100081B0100081B010008B0
:1000C0001B0100081B0100081B0100081B010008A0
:1000D0001B0100081B0100081B0100081B01000890
:1000E0001B0100081B0100081B010008DFF80CD0F1
:1000F00000F078F8004800475D1E0008B0080020B6
:100100000648804706480047FEE7FEE7FEE7FEE7B1
:10011000FEE7FEE7FEE7FEE7FEE7FEE70D18000854
:10012000ED000008202A04DB203A21FA02F0002129
:10013000704721FA02F3D040C2F1200291400843F7
:1001400019467047D2B201E000F8012B491EFBD2DC
:1001500070470022F6E710B513460A4604461946D2
:10016000FFF7F0FF204610BD30B5044600200346DF
:1001700000E05B1C934203D2E05CCD5C401BF8D0F6
:1001800030BD2DE9F05F0546002092469B4688462B
:100190000646814640241BE0284641464746224603
:1001A000FFF7C0FF53465A46C01A914110D311467B
:1001B0001846224600F028F82D1A67EB01084F4632
:1001C00022460120002100F01FF817EB00094E41E4
:1001D000201EA4F10104DFDC484631462A4643468E
:1001E000BDE8F09F064C074D06E0E06840F00103D3
:1001F00094E8070098471034AC42F6D3FFF77AFF33
:10020000B01F0008D01F0008202A04DB203A00FAA3
:1002100002F1002070479140C2F1200320FA03F35D
:10022000194390407047FEE77047704770B5044629
:1002300000F088F90546601C02D0044800780444A8
:1002400000F080F9401BA042FAD370BD04000020EA
:100250002DE9F0430023374F0F2566E001229A4035
:100260000A4060D023F00304E619D6F808809C0702
:100270004FEA147C05FA0CF909EA0804DFF8B880A3
:10028000404502D14FF0000816E0DFF8B08040454D
:1002900002D14FF001080FE0DFF8A480404502D101
:1002A0004FF0020808E0DFF89C80404502D14FF093
:1002B000030801E04FF0040808FA0CF8A04515D136
:1002C000D6F808C02CEA090CC6F808C01E4E3468DF
:1002D00094433460341D266896432660241D2668A6
:1002E00096432660241D266896432660FF2A01D87F
:1002F000064601E000F104064FEA830401D9A4F1A7
:100300002004D6F800C005FA04F82CEA080C4FF0D7
:10031000040808FA04F84CEA080CC6F800C0C468DF
:1003200024EA0204C46003F1010331FA03F295D117
:10033000BDE8F0830000014000080140000C0140CE
:100340000010014000140140000401402DE9F84F65
:10035000DFF8B891002409F1040A0AF1040B2346DE
:100360000F270BF1040EC9E00125A5402A40AA423F
:100370007DD1674ED1F804C0ACEB0608B44532D04D
:1003800014DCBCF1030F3AD009DCBCF1000F2AD019
:10039000BCF1010F1CD0BCF1020F31D11DE0BCF14A
:1003A000110F17D0BCF1120F2AD119E0B8F5881F30
:1003B00019D006DCB8F5803F15D0B8F5801F1FD1E5
:1003C00011E0B8F5001F0ED0B8F5041F18D10AE0EF
:1003D000CB6815E0CB681B1D12E0CB6808330FE03B
:1003E000CB680C330CE08B682BB1012B4FF008036A
:1003F00003D0456104E0042302E0056100E000232E
:10040000FF2A01D8064601E000F104064FEA840500
:1004100001D9A5F12005D6F8008007FA05FC28EAE5
:100420000C0803FA05F548EA0508C6F800804D688F
:10043000ED0062D5374DAE6946F00106AE61AD699B
:1004400024F0030605F001050095334D06EB050C7D
:10045000DCF80850A607360F07FA06F825EA080563
:10046000DFF8B880404503D14FF0000817E044E0C2
:10047000DFF8AC80404502D14FF001080FE0DFF813
:10048000A480404502D14FF0020808E0DFF89880D0
:10049000404502D14FF0030801E04FF0040808FA8C
:1004A00006F848EA0508CCF808804D68D9F80060DD
:1004B000ED034D4601D5164300E096432E604D688E
:1004C000DAF80060AD03554601D5164300E09643C7
:1004D0002E604D68DBF80060ED025D4601D51643E5
:1004E00000E096432E604D68DEF80060AD02754670
:1004F00001D5164300E096432E60641C0D682A4621
:10050000E5407FF431AFBDE8F88F00000004014002
:1005100000001110001002400000014000080140DE
:10052000000C01400010014000140140C2680A4262
:1005300001D041617047016170470AB101617047A4
:100540000904FBE7014880687047000004000020B0
:1005500002488168027811448160704704000020DD
:10056000074810B5016841F010010160032000F058
:100570006BF8002000F006F800F024F8002010BD11
:100580000020024070B50D4D04464FF47A71287872
:10059000B1FBF0F00A490968B1FBF0F000F075FC1E
:1005A00048B9102C07D200222146501E00F02CF82A
:1005B00000206C6070BD012070BD000004000020B0
:1005C000100000200E4808B5816941F001018161E9
:1005D000816901F001010091C16941F08051C1615F
:1005E000C06900F080500090052000F02DF805480B
:1005F000416821F0E06141F00071416008BD0000F8
:100600000010024000000140F0B40E4B1B680C4685
:10061000C3F30223C3F10705042D00D90425191DD6
:10062000072901D2002300E0DB1E012606FA05F1AE
:10063000491E214099409E40761E16403143F0BC31
:1006400001F0A8B90CED00E0064900F007020868C7
:100650004FF6FF03184040EA0220034A10430860A7
:10066000704700000CED00E00000FA052DE9F047AE
:100670000F46050061D0434E306800F00700B842D5
:1006800009D2306820F0070038433060306800F04D
:100690000700B84251D128683B4C810712D540076A
:1006A00003D5606840F4E06060602878000703D5F7
:1006B000606840F4605060606068A96820F0F000F5
:1006C000084360602878C00728D06868012810D0E7
:1006D0002168022810D0890700292EDA616821F0EC
:1006E000030101436160FFF72DFF804641F2883925
:1006F0000DE021688903EFE78901EDE7FFF722FFAD
:10070000A0EB0801494502D90320BDE8F0876068E5
:10071000696800F00C00B0EB810FEFD1306800F099
:100720000700B8420BD9306820F00700384330602A
:10073000306800F00700B84201D00120E5E72878D2
:10074000400705D56068E96820F4E0600843606010
:100750002878000706D56068296920F4605040EACF
:10076000C100606000F038F86168084AC1F3031105
:10077000515CC8400649086006480068FFF702FF60
:100780000020C2E700200240001002403C1F000889
:10079000100000200800002004480549006849684E
:1007A000044AC1F30221515CC84070471000002088
:1007B000001002404C1F00080448054900684968C1
:1007C000044AC1F3C221515CC840704710000020A8
:1007D000001002404C1F000812A185B00FC98DE81F
:1007E0000F0014A0144A006804905168134801F0E7
:1007F0000C03042B10D0082B0ED1C1F38343C90383
:100800001DF803000AD5516804AAC1F34041515CA8
:100810000A4A5043B0FBF1F005B07047084948431D
:10082000FAE7000002030405060708090A0B0C0D8D
:100830000E0F1010010200000010024000127A009A
:1008400000093D002DE9F84F040070D02078C04D1C
:10085000C00749D06868C0F38100012807D06868E4
:10086000C0F38100022809D16868C00306D5286852
:10087000800339D560680028E7D035E06068B0F5BE
:10088000803F0BD010B1B0F5A02F11D0286820F414
:1008900080302860286820F4802002E0286840F436
:1008A00080302860606890B1FFF74CFE06460AE091
:1008B000286840F480202860F0E700BFFFF742FE80
:1008C000801B642873D828688003F7D50CE0FFF7F5
:1008D00039FE064605E000BFFFF734FE801B6428A2
:1008E000F0D828688003F7D420789A4E80074FF01C
:1008F00001094FF0000839D5686810F00C0F07D0D7
:100900006868C0F38100022809D16868C00306D472
:100910002868800714D52069012808D110E02069D3
:10092000B0B1C6F80090FFF70DFE074605E00AE1FA
:10093000FFF708FEC01B0228C4D828688007F7D537
:100940002868616920F0F80040EAC10028600DE0E5
:10095000C6F80080FFF7F6FD074604E0FFF7F2FD5A
:10096000C01B022823D828688007F7D42078000706
:100970002CD57948A169D9B1C0F80090FFF7E2FD04
:10098000074604E0FFF7DEFDC01B02280FD8686AA7
:100990008007F7D571484FF4FA510068B0FBF1F0C9
:1009A000009000BF0098411E0091FAD20EE080E056
:1009B000C0F80080FFF7C6FD074604E0FFF7C2FD60
:1009C000C01B022875D8686A8007F7D420784007D2
:1009D00060D5E8690027C00008D4E86940F080507D
:1009E000E861E869012700F0805000905C480168E8
:1009F000C90513D40168834641F480710160FFF793
:100A0000A1FD824606E000BFFFF79CFDA0EB0A00B7
:100A100064284ED8DBF80000C005F5D5E068012851
:100A20000AD008B1052813D0286A20F001002862F6
:100A3000286A20F0040002E0286A40F001002862E1
:100A4000E06841F2883B98B1FFF77CFD82460BE0FD
:100A5000286A40F004002862EEE700BFFFF772FD4D
:100A6000A0EB0A0159455AD8286A8007F6D50CE050
:100A7000FFF768FD824605E0FFF764FDA0EB0A0181
:100A800059454CD8286A8007F6D41FB1E86920F090
:100A90008050E861E06988B36968C1F38101022987
:100AA00044D00228C6F8608004D0FFF74BFD04460E
:100AB00038E034E0FFF746FD074604E0FFF742FD6B
:100AC000C01B02282BD828688001F7D4206AB0F513
:100AD000803F05D16868A16820F400300843686051
:100AE000D4E908010843696821F474110843686077
:100AF000C6F86090FFF726FD044606E025E000BF3B
:100B0000FFF720FD001B022809D828688001F7D5CF
:100B10001BE000BFFFF716FD001B022802D90320CF
:100B2000BDE8F88F28688001F4D40EE00128F7D0E2
:100B30006868226A00F48031914204D1616A00F44D
:100B40007010884201D00120EAE70020E8E70000A9
:100B50000010024000004242800442421000002087
:100B60000070004010B5040011D0022084F851003C
:100B70002068016821F040010160204600F048F83B
:100B80000020606584F8510084F8500010BD0120F9
:100B900010BD70B5040005D00025A56294F8510081
:100BA00010B106E0012070BD84F85050204600F0DE
:100BB00043F8022084F851002068016821F04001C8
:100BC0000160D4E901010843D4E903121143084349
:100BD00061690843218B01F400710843E16908430E
:100BE000216A0843A16A084321680860A0690421BA
:100BF00001EA1040216848602068C16921F4006161
:100C0000C1616565012084F85100002070BD0000BD
:100C100000680649884208D10548816921F480515D
:100C20008161E0210348FFF713BB704700300140AA
:100C3000001002400008014030B585B00024009447
:100C400001940294039400681449884223D1144803
:100C5000816941F480518161816901F4805104917D
:100C6000816941F00401816180690E4D00F004004A
:100C70000490A02000900220019003200390694678
:100C80002846FFF763FB4020CDE90004694628466B
:100C90000294FFF75BFB05B030BD0000003001405F
:100CA00000100240000801402DE9F84F044690F87A
:100CB000500000270A9E1D4692468B464FF00109C0
:100CC00001280ED0012084F85000FFF73BFC80463D
:100CD00094F85100616801280CD0B1F5827F07D1EA
:100CE00002E00220BDE8F88FA16809B9042801D00C
:100CF0000227C2E0BBF1000F27D0BAF1000F24D0C9
:100D00001DB394F85100042802D0052084F8510046
:100D100000206065C4F838A0E587A587C4F830B026
:100D2000E586A5862064606420680168490603D4CE
:100D3000016841F040010160E068B0F5006F606853
:100D400005D0E8B3012D46D07FE0012795E008B13A
:100D5000012D39D1206B21680088C860206B801C70
:100D60002063E08E401EE0862EE0206881688907BF
:100D70000FD5E18E69B1B9F1010F0AD1216B098854
:100D8000C160206B801C2063E08E401EE0864FF027
:100D9000000920688168C9070CD0E18F51B1C06893
:100DA000A16B0880A06B801CA063E08F401EE087D1
:100DB0004FF00109FFF7C6FBA0EB0800B04200E0CE
:100DC00009E001D3701C50D1E08E0028CDD1E08F16
:100DD0000028CAD13FE0206B216800780873206B9F
:100DE000401C2063E08E401EE0862EE02068816873
:100DF00089070FD5E18E69B1B9F1010F0AD1216BD5
:100E000009780173206B401C2063E08E401EE08651
:100E10004FF0000920688168C9070CD0E18F51B1FB
:100E2000C068A16B0870A06B401CA063E08F401EDF
:100E3000E0874FF00109FFF785FBA0EB0800B04207
:100E400002D3701C01D010E07EB1E08E0028CDD11D
:100E5000E08F0028CAD142463146204600F052FCBD
:100E600028B101272020606507E0032705E0A0687E
:100E700018B92068C16880680090012084F851008A
:100E8000002084F8500038462CE710B5401EB0F121
:100E9000807F01D3012010BD4FF0E02460610F215D
:100EA000601700F077FD0020A0610720206100207E
:100EB00010BD10B5040013D0242084F83900206838
:100EC000C16821F40051C160204600F03DF80020C7
:100ED000E06384F8390084F83A0084F8380010BDE3
:100EE000012010BD70B5040004D094F8390000252D
:100EF00010B106E0012070BD84F83850204600F0A3
:100F000039F8242084F839002068C16821F40051A0
:100F1000C160204600F09EFC2068016921F49041E8
:100F200001612068416921F02A0141612068C1689E
:100F300041F40051C160E563202084F8390084F851
:100F40003A00002070BD000000680749884209D1BE
:100F50000648816921F4804181614FF4C0610448F1
:100F6000FFF776B9704700000038014000100240DA
:100F70000008014030B585B000240094019402942B
:100F8000039400681449884224D11448816941F4CB
:100F900080418161816901F480410491816941F05E
:100FA0000401816180690E4D00F0040004904FF44B
:100FB00000700090022001900320039069462846AB
:100FC000FFF7C4F92815CDE90004694628460294C4
:100FD000FFF7BCF905B030BD0038014000100240F9
:100FE000000801402DE9F843044690F839001F46F7
:100FF00016460D46202850D1A5B19EB194F8380070
:1010000001284AD0012084F838004FF00008C4F8C5
:101010003C80212084F83900FFF794FAA6848146A9
:10102000E68426E00120BDE8F883E08C401EE084E1
:10103000A0684B46B0F5805F4FF000024FF0800192
:101040002046009703D000F061FCE8B90DE000F005
:101050005DFCC8B928882168C0F308004860206991
:1010600008B16D1C05E0AD1C03E0216815F8010B0B
:101070004860E08C0028D8D14B4600224021204611
:10108000009700F043FC08B10320CCE7202084F84F
:10109000390084F838800020C5E70220C3E7FEE766
:1010A000F0B585B0002000900190029003901A489E
:1010B000816941F020018161816901F02001049181
:1010C000816941F0040181618069144E00F00400DF
:1010D0004FF484740490012221463046FFF72DFA24
:1010E0000F4F012204213846FFF727FA009401240C
:1010F0000325694630460194CDE90245FFF726F9FC
:101100000420CDE9000469463846CDE90245FFF7E1
:101110001DF905B0F0BD00000010024000080140BC
:1011200000140140104810B50E4901604FF482715F
:10113000416000218160C1604FF400720161C0E92B
:1011400005120822C0E90721416281620A21C162B9
:10115000FFF71FFD002803D0BDE81040FFF765B87A
:1011600010BD000000300140180400200C4810B5EC
:101170000A4901604FF4E1314160002181600C2295
:10118000C160C0E904128161C161FFF7ABFE0028B4
:1011900003D0BDE81040FFF748B810BD003801404B
:1011A00070040020FEE770477047000010B5012270
:1011B00008210448FFF7C1F9BDE81040FF2000F006
:1011C0008BBA00000008014070B5054601220021DD
:1011D000092000F0EDF9040004D11021284600F0A8
:1011E0007BF90446FFF7E2FF0CB1012070BD00203F
:1011F00070BD70B5054640F6FF7401E0641EA4B2F0
:10120000FF2000F09BF9A84202D0002CF6D102E0AA
:101210000CB1002070BDFF2070BD1FB56846FFF700
:10122000D3FF10B1002004B010BD9DF800100120C4
:10123000B0EB911F09D19DF808209DF8091000EB33
:101240000220084400048009EDE79DF805009DF8A0
:101250000A1000F00F0000EBD1109DF809109DF866
:10126000072001F0030100EB41019DF8080080090F
:1012700000EB82009DF8062002F0030200EB8220C2
:10128000401CC91F8840CEE72DE9F84300F03EF925
:101290000024FF2000F020FA641CA4B20A2CF8D32A
:1012A000142400219522084600F082F90546012801
:1012B00002D0641EA4B2F4D2454E0027012D37702F
:1012C0007AD187224FF4D571082000F071F94FF6DA
:1012D000FE7801281ED001220021372000F068F995
:1012E00001220021292000F063F901284FD80220B3
:1012F0003070444601220021372000F059F90122C4
:101300000021292000F054F905004DD0641EA4B23C
:10131000F0D249E000246F46FF2000F00FF9385565
:10132000641CA4B2042CF7D39DF80200012843D119
:101330009DF80300AA283FD144464FF0804801227F
:101340000021372000F034F901224146292000F025
:101350002FF9050002D0641EA4B2F0D2B4B101226C
:1013600000213A2000F024F980B90024FF2000F089
:10137000E5F83855641CA4B2042CF7D39DF800009E
:10138000400601D5062000E00420307014E0012062
:101390003070444601220021104600F009F9050092
:1013A00002D0641EA4B2F5D22CB101225102102049
:1013B00000F0FEF800B13770FFF7F8FE307810B19A
:1013C0000020BDE8F8830DB12846FAE7AA20F8E727
:1013D0000000002070B50020134B0546FF2103F5E7
:1013E00000724FF4007490FBF1F601FB16061D54D9
:1013F0001654401CA042F6D3012211460B4800F0BF
:1014000017F901221146084800F030F82246074932
:101410000548FEF7A9FE28B105A1BDE8704006A069
:1014200000F0A8BA0DA1F8E718000020180200206B
:101430004661696C65640000232053442043617257
:1014400064205265616420262057726974652054B7
:10145000657374202573210D0A00000053756363C2
:1014600065737366756C6C79000000002DE9F041BE
:101470000646184815460078062800D049024FF461
:101480000077012D4FF0010219D0122000F090F8E2
:101490003946304600F020F86D1E044606F5007609
:1014A00015F0FF0501D0002CF2D0012200210C2004
:1014B00000F07EF8FFF77AFE2046BDE8F0811120AB
:1014C00000F076F80400F5D13946304600F004F813
:1014D0000446EFE70000002070B504460D46FE20EC
:1014E000FFF787FE30B1012070BD00BF00F026F885
:1014F00004F8010B6D1EADB24FF0FF00F6D200F004
:10150000EBF8FF2000F0E8F8002070BD10B5FFF701
:1015100009FE08480068016841F040010160FF20B1
:1015200000F0DAF80122BDE8104008210248FFF778
:1015300004B80000180400200008014000F0CCB8F6
:1015400010B5002208210548FEF7F7FF00F05FF80C
:10155000002802D0FFF72AFE012010BD000801403C
:1015600070B50C46054600F052F808B1012070BD78
:10157000204600F0B1F8FD2C18D000244FF400767E
:10158000285D00F0A9F8641CA4B2B442F8D3FF208F
:1015900000F0A2F8FF2000F09FF8FF20FFF7CEFF39
:1015A00000F01F00052801D0022070BD002070BD92
:1015B00070B515460C460646FFF7F8FDFFF7C0FF6D
:1015C00008B1FF2070BD46F0400000F085F8200E05
:1015D00000F082F8C4F3074000F07EF8C4F307205F
:1015E00000F07AF8E0B200F077F8284600F074F8DE
:1015F0000C2E02D1FF2000F06FF81F24FF20FFF710
:101600009DFF0106DED5641EE4B2F7D270BD70B551
:1016100000246FF07F45FF20FFF790FFFF2804D0E4
:10162000641CAC42F7D3012070BD002070BD0000E7
:1016300070B506461D4815460C460078062800D0B1
:101640004C02012D13D0012809D00122002137209E
:10165000FFF7AEFF012229461720FFF7A9FF01225D
:1016600021461920FFF7A4FF04000AD01AE0012246
:1016700021461820FFF79CFF040013D1FE213046BD
:101680000DE0FC213046FFF76BFF6D1E06F500767E
:1016900015F0FF0501D00028F3D0FD210020FFF751
:1016A0005FFF0446FFF782FD204670BD000000206A
:1016B00010B5084C2068016821F040010160204607
:1016C000FFF750FAFFF72EFD2068016841F0400156
:1016D000016010BD1804002001B582B000208DF813
:1016E00004004FF47A700090012301AA02A9044873
:1016F000FFF7DAFA08B1FFF7DBFF9DF804000EBD33
:101700001804002038B50B460092044600228021C0
:1017100000F008F8002804D0606D40F020006065FB
:10172000032038BD2DE9F0411D4617460E460446FC
:10173000DDF8188008E0681C06D0FEF703FFA0EB78
:101740000800A8420BD255B12068806836EA000034
:1017500030D00020B842EED10020BDE8F0812068F2
:10176000416821F0E00141606068B0F5827F0BD1F3
:10177000A068B0F5004F02D0B0F5806F04D12068AA
:10178000016821F040010160A06AB0F5005F09D155
:101790002068016821F4005101602068016841F46B
:1017A00000510160012084F85100002084F85000AD
:1017B0000320D2E70120CDE77047FEF7C9BE30B560
:1017C0008FB028216846FEF7C4FC14210AA8FEF752
:1017D000C0FC01210804CDE9001000240294022578
:1017E0000491CDE907504FF4E01009906846FFF7E7
:1017F00029F80F20CDE90A056802CDE90C40022145
:101800000AA80E94FEF732FF0FB030BD0D480168F4
:1018100041F00101016041680B4A114041600168DB
:101820000A4A11400160016821F480210160416889
:1018300021F4FE0141604FF41F0181600449C0039F
:1018400008607047001002400000FFF8FFFFF6FE3E
:1018500008ED00E02DE9F041044600680169E26806
:1018600021F44051114301612169A0680843616975
:1018700008432168CA6841F20C639A430243CA6074
:1018800020684169A26921F44071114341611E49F8
:10189000206864253226884202D1FEF78DFF01E0E0
:1018A000FEF77AFF00EBC00101EB001160686FF0FA
:1018B00018078000B1FBF0F2B2FBF5F2B1FBF0F3D8
:1018C0007A4303EB8202B1FBF0F306EB0212B2FBA8
:1018D000F5F2B3FBF5F302F0F00202EB0312B1FBF9
:1018E000F0F3B1FBF0F0B0FBF5F0784303EB8000D0
:1018F00006EB0010B0FBF5F0216800F00F0010447B
:101900008860BDE8F0810000003801402DE9F04119
:10191000984617460E460446069D1DE0681C1BD0DF
:101920002DB1FEF70FFEA0EB0800A84214D92068E5
:10193000C16821F4D071C1602068416921F00101C2
:101940004161202084F8390084F83A00002084F8AE
:1019500038000320BDE8F0812068006836EA000006
:1019600004D00020B842D9D00020F3E70120F9E7E5
:10197000FEE700000FB4054B10B503A9044A029816
:1019800000F028F810BC5DF814FB0000391E0008B8
:10199000140000200907090E002804DB00F1E020F4
:1019A00080F80014704700F00F0000F1E02080F88C
:1019B000141D704702E008C8121F08C1002AFAD19E
:1019C00070477047002001E001C1121F002AFBD1BF
:1019D000704700002DE9FF4F8DB00F4605460026E9
:1019E00006E025280BD0DDE90F1290476D1C761C10
:1019F00028780028F5D111B03046BDE8F08F0024DA
:101A0000A246A1460122EC4900E0044315F8013F3B
:101A1000203B02FA03F00842F7D128782A2810D098
:101A20006FF02F022878A0F13001092914D80AEBB1
:101A30008A0102EB410144F0020400EB010A6D1C33
:101A4000F0E701CF5FEA000A03D544F40054CAF17D
:101A5000000A44F002046D1C28782E2817D115F8CE
:101A6000010F44F004042A280ED06FF02F022878CA
:101A7000A0F1300109290AD809EB890102EB4101E3
:101A800000EB01096D1CF2E757F8049B6D1C2878E8
:101A90006C280FD006DC4C2817D068280DD06A2897
:101AA00014D104E0742810D07A280FD10DE044F44A
:101AB00000140AE044F4801401E044F4401469780E
:101AC000814202D104F580146D1C6D1C2A786E2AA7
:101AD0001FD00CDC632A31D004DC002A8BD0582ABA
:101AE00011D1A3E0642A68D0692A0CD165E0732A79
:101AF0002ED004DC6F2A73D0702A04D19BE0752AA3
:101B00006FD0782A6ED01046DDE90F129047761C10
:101B100050E1C4F30250022806D0032809D004285B
:101B200001CF09D0066045E101CFF117C0E900619E
:101B300040E101CF06803DE106703BE117F8040B60
:101B40008DF8000000208DF80100EB46012003E035
:101B500057F804BB4FF0FF3061074FF0000102D48B
:101B60000DE008F10101884649450FDA8045F8DBB0
:101B70001BF808100029F4D108E008F1010188469B
:101B80008142FADB1BF808100029F6D1DDE90F23AA
:101B9000AAEB08008146214600F036F9304400EBFC
:101BA000080604E0DDE90F121BF8010B9047B8F1BD
:101BB0000108F7D221464846F7E00A21C4F3025350
:101BC0004FF0000B0891022B04D001CFC117032B5B
:101BD00009D00AE0FF1D27F00707F7E8020108E037
:101BE00032E01FE020E000B2C117042B01D140B267
:101BF000C117031E71F1000307DA4FF0000CD0EBA0
:101C00000C006CEB01012D2302E0230504D52B23EE
:101C10008DF82430012303E0E30701D02023F7E708
:101C2000984658E00A2110E010210EE010204FF0F5
:101C3000000B08900CE010214FF0000B44F004045E
:101C40004FF00809089103E008214FF0000B0891BC
:101C5000C4F30253022B04D001CF0021032B06D082
:101C600006E0FF1D27F00707F7E8020103E080B256
:101C7000042B00D1C0B24FF0000823072BD5702AE7
:101C800007D0DDF820C08CF0100C5CEA0B0C05D0FE
:101C90000EE040238DF82430012308E050EA0103D0
:101CA00006D030238DF824308DF825200223984665
:101CB000DDF820C08CF0080C5CEA0B0C0BD150EA6C
:101CC000010301D1630706D530238DF824304FF08E
:101CD0000108A9F10109582A04D038A20B9208AAD8
:101CE0000A920BE03AA2F9E75B46089AFEF749FA36
:101CF0000B9B9B5C0A9A521E0A92137050EA0102D7
:101D0000F2D10A98ADEB000000F1200B600702D57C
:101D100024F4803401E04FF00109D94502DDA9EB3C
:101D20000B0000E0002000EB0B0141440890AAEBFF
:101D3000010AE00306D4DDE90F232146504600F0F6
:101D400063F806444FF0000908E009A911F80900FA
:101D5000DDE90F12904709F10109761CC145F4DB5A
:101D6000E0030CD5DDE90F232146504600F04CF886
:101D7000064404E0DDE90F1230209047761C0899F4
:101D8000481E08900029F5DC08E00A980A990078B6
:101D9000491C0A91DDE90F129047761CBBF1000146
:101DA000ABF1010BF1DC21465046DDE90F2300F0D9
:101DB00019F806446D1C1BE6092801003031323346
:101DC0003435363738396162636465660000000077
:101DD0003031323334353637383941424344454661
:101DE000000000002DE9F041044600251E4617467C
:101DF000880404D405E039462020B0476D1C641ED9
:101E0000F9D52846BDE8F0812DE9F04104460025CA
:101E10001E469046C80301D5302700E020278804DD
:101E200004D505E041463846B0476D1C641EF9D51F
:101E30002846BDE8F081000013B5642301226946FD
:101E40000548FFF7CFF820B10348FFF732F8FFF756
:101E50008DF900981CBD000070040020FEF780FB87
:101E6000FFF7ADFCFFF71CF9FFF780F91948FFF702
:101E700081FD4FF47A754FF48074174E09E02146C6
:101E80003046FEF753FB2846FEF7D0F913A0FFF7C4
:101E900071FDFFF7F9F90028F1D1FFF7BEF9C10D87
:101EA000C0F3CB24174844EA01340E0D017816A084
:101EB000FFF760FD2246334619A0FFF75BFDFFF7F1
:101EC00089FA1D4C04212046FEF730FB2846FEF718
:101ED000ADF9F7E7541F0008000801402323205BF9
:101EE000576172696E696E675D3A20736420636141
:101EF0007264206E6F7420666F756E6420210D0A07
:101F000000000000000000202320534420436172A1
:101F10006420547970653A3078253032580D0A00C3
:101F20002320534420436172642053697A653A2523
:101F30006C6C644D420D0A0000140140000000006A
:101F40000000000001020304060708090000000069
:101F5000010203040D0A0D0A232323232323232331
:101F60002323232323232323232323232323232044
:101F700048414C204C69626172792053442043618E
:101F80007264205350492044656D6F20232323231E
:101F90002323232323232323232323232323232311
:101FA0002323232323232323232323230D0A000076
:101FB000D01F00080000002018000000B41900081D
:101FC000E81F00081800002098080000C419000845
:101FD00000000000010000001000000000000000F0
:081FE0000024F40000000000E1
:04000005080000ED02
:00000001FF
