:020000040800F2
:1000000048090020010100086B1300080B120008CA
:100010006913000827020008751A00080000000094
:100020000000000000000000000000002918000887
:1000300029020008000000006D1300082B180008BA
:100040001B0100081B0100081B0100081B01000820
:100050001B0100081B0100081B0100081B01000810
:100060001B0100081B0100081B0100081B01000800
:100070001B0100081B0100081B0100081B010008F0
:100080001B0100081B0100081B0100081B010008E0
:100090001B0100081B0100081B0100081B010008D0
:1000A0001B0100081B0100081B0100081B010008C0
:1000B0001B0100081B0100081B0100081B010008B0
:1000C0001B0100081B0100081B0100081B010008A0
:1000D0001B0100081B0100081B0100081B01000890
:1000E0001B0100081B0100081B010008DFF80CD0F1
:1000F00000F078F800480047F53100084809002072
:100100000648804706480047FEE7FEE7FEE7FEE7B1
:10011000FEE7FEE7FEE7FEE7FEE7FEE77D180008E4
:10012000ED000008202A04DB203A21FA02F0002129
:10013000704721FA02F3D040C2F1200291400843F7
:1001400019467047D2B201E000F8012B491EFBD2DC
:1001500070470022F6E710B513460A4604461946D2
:10016000FFF7F0FF204610BD30B5044600200346DF
:1001700000E05B1C934203D2E05CCD5C401BF8D0F6
:1001800030BD2DE9F05F0546002092469B4688462B
:100190000646814640241BE0284641464746224603
:1001A000FFF7C0FF53465A46C01A914110D311467B
:1001B0001846224600F028F82D1A67EB01084F4632
:1001C00022460120002100F01FF817EB00094E41E4
:1001D000201EA4F10104DFDC484631462A4643468E
:1001E000BDE8F09F064C074D06E0E06840F00103D3
:1001F00094E8070098471034AC42F6D3FFF77AFF33
:100200007036000890360008202A04DB203A00FAF5
:1002100002F1002070479140C2F1200320FA03F35D
:10022000194390407047FEE770477047002200F086
:1002300001B8000030B50E4B054601205C7A012C58
:1002400015D8587A00241C54587A03EB8000456076
:100250005D7A03F108002A54587A421C5A723030F1
:1002600008703A2048702F208870CC70002030BD74
:100270003C05002010B51EA286B007CA8DE8070015
:1002800018A41321204602F083F828B121461BA0B0
:1002900001F0F2FB06B010BD0A226946204602F0CA
:1002A00091F810B121461DA013E0002002F038F8AB
:1002B0000A2203A9204602F077F810B121461FA0B8
:1002C00007E00A22694603A8FFF74EFF38B123A1D1
:1002D00024A001F0D1FB2B4802F082F8DAE72AA132
:1002E000F6E70000746573742E74787400000000E3
:1002F00048656C6C6F576F726C64000023235B451C
:1003000072726F725D3A206F70656E202573206681
:1003100061696C6564210D0A0000000023235B45C0
:1003200072726F725D3A207772697465202573204E
:100330006661696C6564210D0A00000023235B453A
:1003400072726F725D3A2072656164202573206657
:1003500061696C6564210D0A000000004661696CEA
:100360006564000023204661744673205265616411
:100370002026205772697465205465737420257394
:10038000210D0A006C020020537563636573736668
:10039000756C6C790000000070B5044600F088F9B7
:1003A0000546601C02D004480078044400F080F93F
:1003B000401BA042FAD370BD200000202DE9F0437D
:1003C0000023374F0F2566E001229A400A4060D093
:1003D00023F00304E619D6F808809C074FEA147C42
:1003E00005FA0CF909EA0804DFF8B880404502D1A3
:1003F0004FF0000816E0DFF8B080404502D14FF022
:1004000001080FE0DFF8A480404502D14FF0020858
:1004100008E0DFF89C80404502D14FF0030801E07E
:100420004FF0040808FA0CF8A04515D1D6F808C01A
:100430002CEA090CC6F808C01E4E34689443346098
:10044000341D266896432660241D26689643266040
:10045000241D266896432660FF2A01D8064601E03F
:1004600000F104064FEA830401D9A4F12004D6F870
:1004700000C005FA04F82CEA080C4FF0040808FA4A
:1004800004F84CEA080CC6F800C0C46824EA020468
:10049000C46003F1010331FA03F295D1BDE8F083A2
:1004A0000000014000080140000C01400010014024
:1004B00000140140000401402DE9F84FDFF8B89125
:1004C000002409F1040A0AF1040B23460F270BF15B
:1004D000040EC9E00125A5402A40AA427DD1674EFD
:1004E000D1F804C0ACEB0608B44532D014DCBCF142
:1004F000030F3AD009DCBCF1000F2AD0BCF1010F88
:100500001CD0BCF1020F31D11DE0BCF1110F17D08E
:10051000BCF1120F2AD119E0B8F5881F19D006DCFA
:10052000B8F5803F15D0B8F5801F1FD111E0B8F5A0
:10053000001F0ED0B8F5041F18D10AE0CB6815E0F3
:10054000CB681B1D12E0CB6808330FE0CB680C337F
:100550000CE08B682BB1012B4FF0080303D04561F1
:1005600004E0042302E0056100E00023FF2A01D833
:10057000064601E000F104064FEA840501D9A5F121
:100580002005D6F8008007FA05FC28EA0C0803FAD3
:1005900005F548EA0508C6F800804D68ED0062D50B
:1005A000374DAE6946F00106AE61AD6924F0030631
:1005B00005F001050095334D06EB050CDCF80850FD
:1005C000A607360F07FA06F825EA0805DFF8B8800F
:1005D000404503D14FF0000817E044E0DFF8AC805D
:1005E000404502D14FF001080FE0DFF8A4804045FC
:1005F00002D14FF0020808E0DFF89880404502D1B0
:100600004FF0030801E04FF0040808FA06F848EA42
:100610000508CCF808804D68D9F80060ED034D4618
:1006200001D5164300E096432E604D68DAF800606D
:10063000AD03554601D5164300E096432E604D6844
:10064000DBF80060ED025D4601D5164300E09643FD
:100650002E604D68DEF80060AD02754601D5164388
:1006600000E096432E60641C0D682A46E5407FF446
:1006700031AFBDE8F88F0000000401400000111008
:10068000001002400000014000080140000C014041
:100690000010014000140140C2680A4201D04161CB
:1006A0007047016170470AB1016170470904FBE7B7
:1006B00001488068704700002000002002488168DF
:1006C000027811448160704720000020074810B56F
:1006D000016841F010010160032000F06BF8002078
:1006E00000F006F800F024F8002010BD00200240C1
:1006F00070B50D4D04464FF47A712878B1FBF0F0D7
:100700000A490968B1FBF0F000F075FC48B9102CFB
:1007100007D200222146501E00F02CF800206C6009
:1007200070BD012070BD0000200000202C000020C2
:100730000E4808B5816941F001018161816901F0CC
:1007400001010091C16941F08051C161C06900F0AF
:1007500080500090052000F02DF80548416821F0F8
:10076000E06141F00071416008BD000000100240EE
:1007700000000140F0B40E4B1B680C46C3F302238B
:10078000C3F10705042D00D90425191D072901D23D
:10079000002300E0DB1E012606FA05F1491E214078
:1007A00099409E40761E16403143F0BC01F074B96A
:1007B0000CED00E0064900F0070208684FF6FF0361
:1007C000184040EA0220034A1043086070470000C6
:1007D0000CED00E00000FA052DE9F0470F4605009A
:1007E00061D0434E306800F00700B84209D230684B
:1007F00020F0070038433060306800F00700B8424E
:1008000051D128683B4C810712D5400703D5606859
:1008100040F4E06060602878000703D5606840F429
:10082000605060606068A96820F0F0000843606074
:100830002878C00728D06868012810D021680228CD
:1008400010D0890700292EDA616821F003010143E5
:100850006160FFF72DFF804641F288390DE0216885
:100860008903EFE78901EDE7FFF722FFA0EB08011D
:10087000494502D90320BDE8F0876068696800F047
:100880000C00B0EB810FEFD1306800F00700B842E8
:100890000BD9306820F0070038433060306800F032
:1008A0000700B84201D00120E5E72878400705D5C8
:1008B0006068E96820F4E060084360602878000719
:1008C00006D56068296920F4605040EAC100606084
:1008D00000F038F86168084AC1F30311515CC84060
:1008E0000649086006480068FFF702FF0020C2E7DB
:1008F0000020024000100240463500082C00002075
:10090000240000200448054900684968044AC1F3EE
:100910000221515CC84070472C00002000100240AA
:10092000563500080448054900684968044AC1F37F
:10093000C221515CC84070472C00002000100240CA
:100940005635000812A185B00FC98DE80F0014A01C
:10095000144A006804905168134801F00C03042BFA
:1009600010D0082B0ED1C1F38343C9031DF8030037
:100970000AD5516804AAC1F34041515C0A4A504368
:10098000B0FBF1F005B0704708494843FAE70000B2
:1009900002030405060708090A0B0C0D0E0F1010C0
:1009A000010200000010024000127A0000093D0020
:1009B0002DE9F84F040070D02078C04DC00749D011
:1009C0006868C0F38100012807D06868C0F381001F
:1009D000022809D16868C00306D52868800339D584
:1009E00060680028E7D035E06068B0F5803F0BD044
:1009F00010B1B0F5A02F11D0286820F48030286005
:100A0000286820F4802002E0286840F480302860C4
:100A1000606890B1FFF74CFE06460AE0286840F493
:100A200080202860F0E700BFFFF742FE801B6428AB
:100A300073D828688003F7D50CE0FFF739FE064627
:100A400005E000BFFFF734FE801B6428F0D828685B
:100A50008003F7D420789A4E80074FF001094FF0B9
:100A6000000839D5686810F00C0F07D06868C0F32B
:100A70008100022809D16868C00306D4286880076D
:100A800014D52069012808D110E02069B0B1C6F85A
:100A90000090FFF70DFE074605E00AE1FFF708FEAC
:100AA000C01B0228C4D828688007F7D52868616968
:100AB00020F0F80040EAC10028600DE0C6F8008090
:100AC000FFF7F6FD074604E0FFF7F2FDC01B022822
:100AD00023D828688007F7D4207800072CD57948D8
:100AE000A169D9B1C0F80090FFF7E2FD074604E024
:100AF000FFF7DEFDC01B02280FD8686A8007F7D514
:100B000071484FF4FA510068B0FBF1F0009000BF5B
:100B10000098411E0091FAD20EE080E0C0F80080FB
:100B2000FFF7C6FD074604E0FFF7C2FDC01B022821
:100B300075D8686A8007F7D42078400760D5E869DF
:100B40000027C00008D4E86940F08050E861E869F7
:100B5000012700F0805000905C480168C90513D45B
:100B60000168834641F480710160FFF7A1FD824670
:100B700006E000BFFFF79CFDA0EB0A0064284ED8FA
:100B8000DBF80000C005F5D5E06801280AD008B1FF
:100B9000052813D0286A20F001002862286A20F076
:100BA000040002E0286A40F001002862E06841F297
:100BB000883B98B1FFF77CFD82460BE0286A40F045
:100BC00004002862EEE700BFFFF772FDA0EB0A0108
:100BD00059455AD8286A8007F6D50CE0FFF768FD1A
:100BE000824605E0FFF764FDA0EB0A0159454CD8A9
:100BF000286A8007F6D41FB1E86920F08050E861C8
:100C0000E06988B36968C1F38101022944D00228F0
:100C1000C6F8608004D0FFF74BFD044638E034E0AE
:100C2000FFF746FD074604E0FFF742FDC01B022820
:100C30002BD828688001F7D4206AB0F5803F05D111
:100C40006868A16820F4003008436860D4E90801AE
:100C50000843696821F4741108436860C6F860901D
:100C6000FFF726FD044606E025E000BFFFF720FD64
:100C7000001B022809D828688001F7D51BE000BFB7
:100C8000FFF716FD001B022802D90320BDE8F88FEC
:100C900028688001F4D40EE00128F7D06868226A41
:100CA00000F48031914204D1616A00F470108842EE
:100CB00001D00120EAE70020E8E700000010024030
:100CC00000004242800442422C000020007000409C
:100CD00010B5040011D0022084F85100206801688A
:100CE00021F040010160204600F048F800206065D6
:100CF00084F8510084F8500010BD012010BD70B57B
:100D0000040005D00025A56294F8510010B106E05A
:100D1000012070BD84F85050204600F043F80220B6
:100D200084F851002068016821F040010160D4E995
:100D300001010843D4E903121143084361690843E0
:100D4000218B01F400710843E1690843216A0843DB
:100D5000A16A084321680860A069042101EA1040E3
:100D6000216848602068C16921F40061C16165653E
:100D7000012084F85100002070BD00000068064981
:100D8000884208D10548816921F480518161E021C0
:100D90000348FFF713BB70470030014000100240CA
:100DA0000008014030B585B00024009401940294FD
:100DB000039400681449884223D11448816941F49E
:100DC00080518161816901F480510491816941F010
:100DD0000401816180690E4D00F004000490A020A0
:100DE0000090022001900320039069462846FFF7F7
:100DF00063FB4020CDE90004694628460294FFF7D2
:100E00005BFB05B030BD0000003001400010024027
:100E1000000801402DE9F84F044690F850000027E3
:100E20000A9E1D4692468B464FF0010901280ED0BE
:100E3000012084F85000FFF73BFC804694F85100F5
:100E4000616801280CD0B1F5827F07D102E0022051
:100E5000BDE8F88FA16809B9042801D00227C2E0D3
:100E6000BBF1000F27D0BAF1000F24D01DB394F8C6
:100E70005100042802D0052084F85100002060654C
:100E8000C4F838A0E587A587C4F830B0E586A58604
:100E90002064606420680168490603D4016841F059
:100EA00040010160E068B0F5006F606805D0E8B30C
:100EB000012D46D07FE0012795E008B1012D39D101
:100EC000206B21680088C860206B801C2063E08E46
:100ED000401EE0862EE02068816889070FD5E18EEC
:100EE00069B1B9F1010F0AD1216B0988C160206B8A
:100EF000801C2063E08E401EE0864FF000092068D1
:100F00008168C9070CD0E18F51B1C068A16B08801E
:100F1000A06B801CA063E08F401EE0874FF00109AA
:100F2000FFF7C6FBA0EB0800B04200E009E001D3E8
:100F3000701C50D1E08E0028CDD1E08F0028CAD19E
:100F40003FE0206B216800780873206B401C206311
:100F5000E08E401EE0862EE02068816889070FD56C
:100F6000E18E69B1B9F1010F0AD1216B09780173E2
:100F7000206B401C2063E08E401EE0864FF000098D
:100F800020688168C9070CD0E18F51B1C068A16B9E
:100F90000870A06B401CA063E08F401EE0874FF0FC
:100FA0000109FFF785FBA0EB0800B04202D3701CDB
:100FB00001D010E07EB1E08E0028CDD1E08F002876
:100FC000CAD142463146204600F0D4FB28B1012761
:100FD0002020606507E0032705E0A06818B92068B5
:100FE000C16880680090012084F85100002084F8D6
:100FF000500038462CE710B5401EB0F1807F01D379
:10100000012010BD4FF0E02460610F21601700F057
:1010100043FD0020A06107202061002010BD10B515
:10102000040013D0242084F839002068C16821F41A
:101030000051C160204600F03DF80020E06384F8D4
:10104000390084F83A0084F8380010BD012010BD42
:1010500070B5040004D094F83900002510B106E002
:10106000012070BD84F83850204600F039F8242063
:1010700084F839002068C16821F40051C16020461D
:1010800000F020FC2068016921F490410161206892
:10109000416921F02A0141612068C16841F4005191
:1010A000C160E563202084F8390084F83A0000200C
:1010B00070BD000000680749884209D1064881696F
:1010C00021F4804181614FF4C0610448FFF776B993
:1010D0007047000000380140001002400008014045
:1010E00030B585B000240094019402940394006804
:1010F0001449884224D11448816941F480418161B6
:10110000816901F480410491816941F004018161A8
:1011100080690E4D00F0040004904FF400700090C0
:10112000022001900320039069462846FFF7C4F986
:101130002815CDE90004694628460294FFF7BCF95A
:1011400005B030BD003801400010024000080140E9
:101150002DE9F843044690F839001F4616460D461F
:10116000202850D1A5B19EB194F8380001284AD06A
:10117000012084F838004FF00008C4F83C8021209A
:1011800084F83900FFF794FAA6848146E68426E0C5
:101190000120BDE8F883E08C401EE084A0684B4647
:1011A000B0F5805F4FF000024FF0800120460097BD
:1011B00003D000F0E3FBE8B90DE000F0DFFBC8B9B5
:1011C00028882168C0F308004860206908B16D1CB8
:1011D00005E0AD1C03E0216815F8010B4860E08CC8
:1011E0000028D8D14B46002240212046009700F02D
:1011F000C5FB08B10320CCE7202084F8390084F82F
:1012000038800020C5E70220C3E7FEE710B5084993
:101210000848FFF70BF80649491E087028B106A1D7
:10122000BDE8104006A000F027BC0AA1F8E70000C6
:1012300019000020040000204661696C656400000C
:101240002320466174467320496E697420257321FA
:101250000D0A00005375636365737366756C6C7972
:1012600000000000F0B585B00020009001900290D1
:1012700003901A48816941F020018161816901F080
:1012800020010491816941F0040181618069144E5B
:1012900000F004004FF4847404900122214630468B
:1012A000FFF701FA0F4F012204213846FFF7FBF93F
:1012B000009401240325694630460194CDE9024596
:1012C000FFF7FAF80420CDE9000469463846CDE975
:1012D0000245FFF7F1F805B0F0BD00000010024034
:1012E0000008014000140140104810B50E4901608B
:1012F0004FF482714160002102228160C0E9031233
:1013000001224261520282610822C0E90721416242
:1013100081620A21C162FFF7F2FC002803D0BDE818
:101320001040FEF782BF10BD00300140980400203D
:101330000C4810B50A4901604FF4E13141600021C9
:1013400081600C22C160C0E904128161C161FFF7B4
:101350007FFE002803D0BDE81040FEF766BF10BD39
:1013600000380140F0040020FEE77047704700009D
:1013700010B5012208210448FFF795F9BDE8104097
:10138000FF2000F0E1B900000008014070B50546FB
:1013900040F6FF7401E0641EA4B2FF2000F010F9D3
:1013A000A84202D0002CF6D102E00CB1002070BDA2
:1013B000FF2070BD2DE9F84300F0F2F80024FF2073
:1013C00000F0C2F9641CA4B20A2CF8D31424002142
:1013D0009522084600F02EF90546012802D0641E29
:1013E000A4B2F4D2454E0027012D37707AD187225E
:1013F0004FF4D571082000F01DF94FF6FE78012852
:101400001ED001220021372000F014F90122002112
:10141000292000F00FF901284FD8022030704446EF
:1014200001220021372000F005F9012200212920A6
:1014300000F000F905004DD0641EA4B2F0D249E0DE
:1014400000246F46FF2000F0BBF83855641CA4B29E
:10145000042CF7D39DF80200012843D19DF8030026
:10146000AA283FD144464FF080480122002137206E
:1014700000F0E0F801224146292000F0DBF80500E9
:1014800002D0641EA4B2F0D2B4B1012200213A20ED
:1014900000F0D0F880B90024FF2000F091F8385512
:1014A000641CA4B2042CF7D39DF80000400601D5BB
:1014B000062000E00420307014E001203070444623
:1014C00001220021104600F0B5F8050002D0641E8C
:1014D000A4B2F5D22CB101225102102000F0AAF8DA
:1014E00000B13770FFF744FF307810B10020BDE83D
:1014F000F8830DB12846FAE7AA20F8E71D0000207E
:101500002DE9F0410646184815460078062800D017
:1015100049024FF40077012D4FF0010219D012203B
:1015200000F088F83946304600F020F86D1E044679
:1015300006F5007615F0FF0501D0002CF2D001224F
:1015400000210C2000F076F8FFF712FF2046BDE8DE
:10155000F081112000F06EF80400F5D139463046D4
:1015600000F004F80446EFE71D00002070B50446C3
:101570000D46FE20FFF70AFF30B1012070BD00BF0D
:1015800000F01EF804F8010B6D1EADB24FF0FF0025
:10159000F6D200F0D9F8FF2000F0D6F8002070BD98
:1015A00010B5FFF7A1FEFF2000F0CEF80122BDE844
:1015B000104008210148FFF776B8000000080140FC
:1015C00000F0C2B810B5002208210548FFF76BF8FB
:1015D00000F05FF8002802D0FFF7CAFE012010BD1E
:1015E0000008014070B50C46054600F052F808B1FD
:1015F000012070BD204600F0A7F8FD2C18D0002473
:101600004FF40076285D00F09FF8641CA4B2B44249
:10161000F8D3FF2000F098F8FF2000F095F8FF20A5
:10162000FFF7CEFF00F01F00052801D0022070BD9B
:10163000002070BD70B515460C460646FFF798FEB3
:10164000FFF7C0FF08B1FF2070BD46F0400000F07A
:101650007BF8200E00F078F8C4F3074000F074F82F
:10166000C4F3072000F070F8E0B200F06DF82846EF
:1016700000F06AF80C2E02D1FF2000F065F81F245C
:10168000FF20FFF79DFF0106DED5641EE4B2F7D20E
:1016900070BD70B500246FF07F45FF20FFF790FF0D
:1016A000FF2804D0641CAC42F7D3012070BD002099
:1016B00070BD000070B506461D4815460C46007802
:1016C000062800D04C02012D13D0012809D0012298
:1016D00000213720FFF7AEFF012229461720FFF730
:1016E000A9FF012221461920FFF7A4FF04000AD018
:1016F0001AE0012221461820FFF79CFF040013D1B5
:10170000FE2130460DE0FC213046FFF76BFF6D1ED9
:1017100006F5007615F0FF0501D00028F3D0FD2175
:101720000020FFF75FFF0446FFF722FE204670BD52
:101730001D00002010B50348FFF7CAFABDE81040AD
:10174000FFF7D2BD9804002001B582B000208DF8CB
:1017500004004FF47A700090012301AA02A9044802
:10176000FFF758FB08B1FFF7E5FF9DF804000EBD39
:101770009804002038B50B460092044600228021D0
:1017800000F008F8002804D0606D40F0200060658B
:10179000032038BD2DE9F0411D4617460E4604468C
:1017A000DDF8188008E0681C06D0FEF781FFA0EB8A
:1017B0000800A8420BD255B12068806836EA0000C4
:1017C00030D00020B842EED10020BDE8F081206882
:1017D000416821F0E00141606068B0F5827F0BD183
:1017E000A068B0F5004F02D0B0F5806F04D120683A
:1017F000016821F040010160A06AB0F5005F09D1E5
:101800002068016821F4005101602068016841F4FA
:1018100000510160012084F85100002084F850003C
:101820000320D2E70120CDE77047FEF747BF30B570
:101830008FB028216846FEF78CFC14210AA8FEF719
:1018400088FC01210804CDE900100024029402253F
:101850000491CDE907504FF4E01009906846FFF776
:10186000A7F80F20CDE90A056802CDE90C40022156
:101870000AA80E94FEF7B0FF0FB030BD0D48016806
:1018800041F00101016041680B4A1140416001686B
:101890000A4A11400160016821F480210160416819
:1018A00021F4FE0141604FF41F0181600449C0032F
:1018B00008607047001002400000FFF8FFFFF6FECE
:1018C00008ED00E02DE9F041044600680169E26896
:1018D00021F44051114301612169A0680843616905
:1018E00008432168CA6841F20C639A430243CA6004
:1018F00020684169A26921F44071114341611E4988
:10190000206864253226884202D1FFF70BF801E0F7
:10191000FEF7F8FF00EBC00101EB001160686FF00B
:1019200018078000B1FBF0F2B2FBF5F2B1FBF0F367
:101930007A4303EB8202B1FBF0F306EB0212B2FB37
:10194000F5F2B3FBF5F302F0F00202EB0312B1FB88
:10195000F0F3B1FBF0F0B0FBF5F0784303EB80005F
:1019600006EB0010B0FBF5F0216800F00F0010440A
:101970008860BDE8F0810000003801402DE9F041A9
:10198000984617460E460446069D1DE0681C1BD06F
:101990002DB1FEF78DFEA0EB0800A84214D92068F7
:1019A000C16821F4D071C1602068416921F0010152
:1019B0004161202084F8390084F83A00002084F83E
:1019C00038000320BDE8F0812068006836EA000096
:1019D00004D00020B842D9D00020F3E70120F9E775
:1019E00010B50A4C0120207009A000F045F8FFF75F
:1019F000E1FC08B900202070207828B108A10AA0D5
:101A000000F03AF8207810BD09A1F8E700000020A6
:101A100023205344204361726420496E697420007E
:101A20004661696C656400002573210D0A000000A1
:101A30005375636365737366756C6C7900000000A1
:101A40000020704710B514460846DAB22146FFF769
:101A500057FD002800D0012010BD0020704710B5B0
:101A600014460846DAB22146FFF724FE002800D0CB
:101A7000012010BDFEE700000FB4054B10B503A90F
:101A8000044A029800F028F810BC5DF814FB00002E
:101A900069300008380000200907090E002804DB1F
:101AA00000F1E02080F80014704700F00F0000F112
:101AB000E02080F8141D704702E008C8121F08C11A
:101AC000002AFAD170477047002001E001C1121FBF
:101AD000002AFBD1704700002DE9FF4F8BB09A46DA
:101AE0000F460446002606E025280BD052460D99E5
:101AF0009047641C761C20780028F5D10FB0304642
:101B0000BDE8F08F0025A94601227D4900E005438C
:101B100014F8013F203B02FA03F00842F7D1207885
:101B20002E2817D114F8010F45F004052A280ED0ED
:101B30006FF02F022078A0F1300109290AD809EBB3
:101B4000890102EB410100EB0109641CF2E757F83F
:101B5000049B641C20786C280DD004DC4C2812D027
:101B60006A2811D104E074280DD07A280CD10AE03B
:101B700045F4001507E0617845F48015814202D1F3
:101B8000641C05F58015641C207869283ED006DCAD
:101B90000028B3D063280BD0642804D136E0732822
:101BA00010D075285CD052460D999047761CA5E060
:101BB00017F8040B8DF8000000208DF80100E846AE
:101BC000012003E057F8048B4FF0FF3069074FF016
:101BD000000501D40AE06D1C4D450DDA8542FADBA3
:101BE00018F805100029F6D106E06D1C8542FCDBD3
:101BF00018F805100029F8D12E4404E018F8010B5C
:101C000052460D9990476D1EF8D277E000200A9059
:101C1000C5F302504FF00A0B02280CD001CFC117B8
:101C2000021E71F100020CDA0023D0EB030063EB1B
:101C300001012D2208E0FF1D27F00707F7E8020148
:101C4000EEE72A0504D52B228DF82420012203E09B
:101C5000EA070FD02022F7E70DF12008089218E0DC
:101C600000200A90C5F302504FF00A0B022803D05F
:101C700001CF00210022EFE7FF1D27F00707F7E85B
:101C80000201F7E75A460A9BFEF77BFA303208F862
:101C9000012D50EA0102F5D1ADEB080000F1200B57
:101CA000680701D44FF00109D94502DDA9EB0B000B
:101CB00000E000208146002506E009A85246405D6C
:101CC0000D9990476D1C761C08988542F5DB04E061
:101CD000302052460D999047761CB9F10001A9F1C8
:101CE0000109F5DC05E018F8010B52460D99904703
:101CF000761CBBF10001ABF1010BF4DC641CFAE6CD
:101D00000928010010B50446002084F80402401E92
:101D1000C4F82C02204601F09FFA08B1032010BD40
:101D2000B4F8FE01A0F52A41553901D0022010BDBA
:101D300094F83600B4F8371040EA01210848B0EBB7
:101D4000012F08D094F85210B4F8532041EA022130
:101D5000B0EB012F01D1002010BD012010BD00000B
:101D6000004641540F4A10B51368BBB1D0F8004289
:101D7000A3420BD15368D0F80842A34206D113897D
:101D8000B0F80602834201D151B903E0022905D01F
:101D9000122010BD5089B0F5807F01D0002010BD09
:101DA000102010BD30050020034900220B6883423B
:101DB00000D10A607047000030050020D0F82422CE
:101DC000D0F80002490A90F80202B1FBF0F0121DAF
:101DD00002CA19B1884203D3401AF8E700207047BD
:101DE000116808447047D0F81422891E921E8A4256
:101DF00001D800207047D0F8282290F8020201FB99
:101E0000002070472DE9F0410F00054606D001F093
:101E10003DF902280BD20120BDE8F081D5F80C6213
:101E20001EB1D5F81402B04208D8012606E0411CC4
:101E3000F2D0D5F814128142EED83E463446D5F899
:101E40001402641CA04202D80224022E0AD32146A6
:101E5000284601F01BF938B1411CDDD00128DBD048
:101E6000B442ECD10020D7E76FF0704221462846FB
:101E700001F00DFA30B957B122463946284601F033
:101E800006FA20B1012812D001242046C4E7C5F883
:101E90000C42D5F81002411CF7D0401EC5F81002C4
:101EA00095F8050240F0010085F80502EDE74FF0D6
:101EB000FF34EAE72DE9F04789460C6800E0641C2E
:101EC00021782F29FBD05C29F9D0D0F818520B22A9
:101ED0002021284601F0B9F9002001460B460826CA
:101EE000E25C5B1C202A35D92F2A33D05C2A31D002
:101EF0002E2A01D0B04208D3082E38D12E2A36D14E
:101F000008200B268906090EEAE7802A05D3244F0C
:101F100041F003013A4412F8802C22A700E07F1C14
:101F200097F800C0BCF1000F02D09445F7D11EE035
:101F3000A2F14107192F02D841F0020107E0A2F1F6
:101F40006107192F03D8203A41F00101D2B22A5477
:101F5000401CC5E71C44C9F80040202A01D80422CF
:101F600000E0002218B12878E52803D004E006201C
:101F7000BDE8F08705202870082E01D18806010EE3
:101F800001F00300012801D142F01002C1F38100E9
:101F9000012801D142F00802EA720020E8E70000BF
:101FA0005E350008222A2B2C3A3B3C3D3E3F5B5DD0
:101FB0007C7F0000012801D00220704708490022E0
:101FC0004889B0F5807F05D008B1401E80B24881B5
:101FD00010B102E00020FAE70A600020704700001C
:101FE000300500202DE9F041B0F806620446761C69
:101FF00030040F46000C37D0D4F8100298B33107E4
:1020000073D1401CC4F81002D4F80C12D4F80002AA
:1020100031B190F80222521E12EA161F05D064E078
:10202000B0F80802B0421FD95FE001F02FF8054672
:1020300001281ED9681C3AD0D4F80002D0F8141236
:10204000A94249D87FB1D4F80C12FFF7DBFE050096
:102050000DD0012D0DD0681C29D0D4F8000201F05C
:102060002CFA20BB07E0FFE70420BDE8F081072041
:10207000FBE70220F9E74FF400720021D4F80002D8
:1020800001F0E3F82946D4F80002FFF7ACFED4F8DB
:10209000001200274FF00108C1F82C0211E000BF28
:1020A00080F80482D4F8000201F007FA08B1012098
:1020B000DBE7D4F80002D0F82C12491C7F1CC0F8D2
:1020C0002C12D4F8000290F80212B942E8D8D0F8E5
:1020D0002C12C91BC0F82C12C4F80C522946D4F893
:1020E0000002FFF780FEC4F81002A4F80662D4F8DC
:1020F000000206F00F0100EB4110C4F814020020AA
:10210000B3E770B50446002100F036F810E0D4F8CB
:102110001012D4F8000201F09FF858B9D4F8140254
:102120000078E52809D040B101212046FFF75AFF89
:102130000028ECD0042809D009E0D4F81012D4F813
:10214000000201F089F8050003D013E007200546DE
:1021500010E0D4F814022022002104F5007401F0EC
:1021600074F8D4E905010B2201F066F8216801201A
:1021700081F80402284670BD70B5A0F80612D0F8A8
:1021800008320D460446012B40D0D4F80002D0F8A6
:10219000141299423AD933B990F80012032906D1A2
:1021A000D0F824321BB190F80202060114E0B0F816
:1021B0000812A9422AD9D0F8240214E000F066FFE0
:1021C0000346401C20D0022B20D3D4F80002D0F8C4
:1021D000140298421AD9AD1BD4F80002B542194630
:1021E000ECD2FFF700FEC4F80C3278B100EB15100A
:1021F000C4F81002D4F8000205F00F0100EB411002
:10220000C4F81402002070BD012070BD022070BD12
:10221000084910B50B5C002253B901220A540A1870
:1022200001EB8000127A4068016810468847024638
:10223000104610BD3C05002030B4054C231804EBBB
:1022400080001B7A406804691846A44630BC604789
:102250003C05002030B4054D2C1805EB8000247A95
:10226000406885682046AC4630BC60473C0500208D
:10227000044A111802EB8000097A40684268084657
:10228000104700003C05002030B4054D2C1805EB2C
:102290008000247A4068C5682046AC4630BC604760
:1022A0003C0500201FB503AA69460C4800F0ADF8B4
:1022B000002812D10399009AD1F8140291F8021261
:1022C000801E48435143C00ACC0A014604A0FFF7D0
:1022D000D3FB21460AA0FFF7CFFB1FBD190000204A
:1022E00023205344204361726420546F74616C2036
:1022F00053697A653A256C644D420D0A000000006E
:102300002320534420436172642046726565202077
:1023100053697A653A256C644D420D0A000000004D
:1023200010B50146034800F0D5F8002800D0012080
:1023300010BD00006C02002010B5012206490748BC
:1023400000F00AFA28B106A1BDE8104006A0FFF788
:1023500093BB0BA1F8E70000190000203C0000200F
:102360004661696C65640000232053442043617218
:1023700064204D6F756E74202573210D0A000000D6
:102380005375636365737366756C6C6C79000000DC
:102390000A4610B50146034800F00CFA002800D0A8
:1023A000012010BD6C02002008B5002000906B4693
:1023B000034800F0C3FA002800D0012008BD000047
:1023C0006C02002008B5002000906B46034800F026
:1023D000D4FB002800D0012008BD00006C020020C2
:1023E00010B5044600F070FB00280DD1204601F026
:1023F00094F8002808D1D4F82802FFF7DBFD002864
:1024000002D10021C4F8001210BD2DE9F74F144687
:102410008A4600226946204600F09AFC24685FEA5A
:10242000000853D1D4E98407B91E884202D8CAF8FB
:1024300000004BE094F800920025B9F1010F02D0A2
:10244000D4F8206217E002263146204600F01EFE36
:10245000411C03D0012803D028B105E0012000E091
:102460000220804628E06D1CD4F81402761C8642B7
:10247000EAD321E051B93146761C204600F0ECFE4B
:102480005FEA000818D120464FF40071B9F1020F3D
:1024900007D00278D0F8013042EA0322120106D0B8
:1024A00006E0028802B96D1C801C891E02E06D1CCA
:1024B000001D091F7F1EDDD1C4F8105294F80502DB
:1024C00040F0010084F80502CAF800504046BDE81B
:1024D000FE8F00002DE9FC5F0D46044601F01DF85B
:1024E0005FEA000973D194F8070200286FD1D4F88D
:1024F000240201274FF0020A002869D0691C33D05A
:10250000D4F80C02A84200D20546C4F80852002DA7
:102510005CD02046691EFFF751FC0146C4F8140246
:10252000D4F80002FFF75FFC00287CD0D4F800123A
:102530006D1E91F80222521E02EA55221518B4F8B7
:102540000802C005E4D0D4F81822AA42E0D094F8DA
:102550000602400646D591F8010201232146FFF705
:1025600093FE002874D137E002C80091D4F810120D
:102570008346022509B30026AD1C01918846761CCE
:10258000D4F8000200F082FD014601284BD9481C16
:102590005ED008F101008142F0D00098854206D853
:1025A000CBF800600BF10400019A04C08346D4F814
:1025B0000002D0F814028842DDD8D4F82402056065
:1025C0000098854205D80021CBF80010C2E09DE0BC
:1025D00016E04FF01109BDE094F8060220F040002B
:1025E00084F80602D4F8000201232A4690F801027A
:1025F0002146FFF72FFE00282AD1C4F81852A9E07F
:10260000D4F80C02A84204D294F80612890700D428
:1026100005464FF00008D4F80802C4F808824DB30C
:10262000D4F8002200E06EE092F802124E0280B16F
:10263000691E401EB1FBF6F1B0FBF6F3994208D3D8
:10264000711E8843C4F808022D1AD4F8141210E041
:102650006EE0D4F8101251B900211046FFF7D2FBFA
:10266000014601284FD0481C62D0C4F81012C4F8AB
:10267000141211BB31E000BF94F806028007D4F8B1
:10268000000205D5FFF7BEFB010004D1354616E078
:1026900000F0FCFC0146481C4AD0012933D9D4F88B
:1026A0000002D0F8140288422DD9C4F81412D4F8CC
:1026B0000802AD1B3044C4F80802B542DCD8D4F897
:1026C00008022844C4F80802E80506D0D4F800023D
:1026D000FFF789FBB8B100EB5528B4F80802C00534
:1026E0002CD0D4F81822424528D094F8060240068F
:1026F00014D5D4F800020123214690F80102FFF717
:10270000C3FDA8B904E084F807A20220BDE8FC9F3D
:1027100094F8060220F0400084F80602D4F8000283
:102720000123424690F801022146FFF793FD18B1BC
:1027300084F807720120E9E7C4F81882D4E982011D
:10274000884207D9C4F80C0294F8060240F0200031
:1027500084F806024846D9E72DE9F74181B0904652
:1027600002980090684600F0F2FC040003D50B20AC
:1027700004B0BDE8F0810E4E002756F8245025B174
:102780002846FFF711FB85F800720198002801D058
:1027900080F8007246F8240002D0B8F1010F01D091
:1027A0000020E5E7002202A901A800F0D1FADFE746
:1027B000340000202DE9F747ADF50B7D06000ED063
:1027C0004FF0000802F01F0727F001028CA980A833
:1027D000C6F8008200F0BCFA040005D0A8E0092089
:1027E0000DF50E7DBDE8F08788A8869068468C9927
:1027F00000F0DAFB859D04000BD11DB1780803D0F1
:10280000012102E0062404E000216846FFF7AAFA4D
:10281000044617F01C0F53D04FF0010A7CB1042C72
:1028200008D14548006808B1122403E06846FFF764
:1028300068FC0446859D47F0080754B178E0E87AC3
:1028400010F0110F01D0072472E0780701D5082499
:102850006EE0380742D585F80E8085F80F80642138
:1028600029745021697485F80B8085F81C8085F8DF
:102870001D8085F81E8085F81F802946809800F00D
:10288000AFFC81460021284600F0B4FD8099B9F1E3
:10289000000F81F804A21FD080984946D0F82CA2DE
:1028A00000F071FD040043D18099A9F10100C1F845
:1028B0000C025146809800F0CFFC04000AD037E0AB
:1028C000B4BBE87AC10601D5042431E0B90701D5CB
:1028D000C007B8D1380701D547F020078098D0F855
:1028E0002C02C6E98705780801D0012100E000210B
:1028F000684600F04BFCC6F82802D8B186F806728C
:1029000086F807824746294606F50076809800F04B
:1029100067FC3061287FD5F81D1040EA0120C6E928
:102920000270B761776280983060B0F80602B080BC
:10293000204655E70224FBE7300500202DE9F84F3B
:1029400088460021994615460446196000F0E5FDC9
:10295000002812D194F8070200280ED194F806023C
:10296000C00709D0D4E98201081A01274FF0020AF2
:10297000854200D90546A2E00720BDE8F88F00BFD8
:10298000D4F80812C8057CD1D4F8000290F80222CD
:10299000521E02EA512212F0FF0614D131B1D4F8CE
:1029A000242232B12046FFF709FA06E0D4F81002DB
:1029B00003E0D4F8141200F069FB022823D3411C71
:1029C0005BD0C4F81402D4F81412D4F80002FFF754
:1029D0000AFAC0B130440090680A5FEA000B2AD0BE
:1029E000D4F8001206EB0B0291F80202824201D9E0
:1029F000A0EB060B91F801025B464146009AFFF7F7
:102A000029FCD0BB03E084F807A20220B5E794F8C4
:102A1000060240060CD5D4F818120098081A58453A
:102A200006D208EB40204FF40072214600F004FC6F
:102A30004FEA4B2637E0D4F818220098824221D082
:102A400094F8060240060ED5D4F800020123214670
:102A500090F80102FFF718FC78B994F8060220F00C
:102A6000400084F80602D4F800020123214690F8C1
:102A70000102009AFFF7EEFB20B184F807720120F3
:102A80007BE702E00098C4F81802B4F80802C0F32B
:102A90000800C0F50076AE4200D92E460119324634
:102AA000404600F0C9FBD4F80802B0443044C4F8F2
:102AB0000802D9F800008119AD1BC9F80010002DDB
:102AC0007FF45EAF002058E770B5044600F025FDA6
:102AD000002811D194F806128A060DD5480612D5A1
:102AE000D4F800020123214690F80102D4F81822FC
:102AF000FFF7CAFB08B1012070BD94F8060220F070
:102B0000400084F80602D4F81C12D4F8000200F049
:102B1000A3FB0028F0D1D4F82052E87A40F020003E
:102B2000E87294F80C022877B4F80C02000A68776F
:102B3000D4F80C02000CA877D4F80C02000EE87749
:102B4000D4F81012284604F5007400F053FC00205D
:102B5000A875E8756421297650216976A874E8740F
:102B6000A07920F02000A0712168012081F80402E2
:102B70002068BDE8704000F045BC2DE9F84F88465C
:102B80000021994615460446196000F0C6FC00284D
:102B900008D194F80702002804D194F806028007AF
:102BA00002D40720BDE8F88FD4F8080201274119A4
:102BB0004FF0020A81427BD3B9E0D4F80812C8056D
:102BC00077D1D4F8002292F80202401E00EA512088
:102BD00010F0FF061ED131B1D4F8240240B12046D6
:102BE000FFF7ECF809E0D4F8100240B9002101E049
:102BF000D4F814121046FFF705F9002858D0012820
:102C00003DD0411C6CD0C4F81402D4F8101209B99C
:102C1000C4F8100294F80602400610D5D4F8000259
:102C20000123214690F80102D4F81822FFF72CFB6B
:102C3000E8BB94F8060220F0400084F80602D4F8BD
:102C40001412D4F80002FFF7CEF8C0B1304400905F
:102C5000680A5FEA000B30D0D4F8000206EB0B02E2
:102C600090F802128A4201D9A1EB060B90F80102FA
:102C70005B464146009AFFF707FBC0B903E084F8C2
:102C800007A202208EE7D4F818120098081A5845B7
:102C90000CD208EB40214FF40072204600F0CCFA31
:102CA00094F8060220F0400084F8060202E017E0E3
:102CB00040E01CE04FEA4B262DE0D4F818120098B3
:102CC000814211D0D4E9820188420DD2D4F80002A9
:102CD0000123214690F80102009AFFF7BBFA18B1D0
:102CE00084F8077201205DE70098C4F81802B4F870
:102CF0000802C0F30800C0F50076AE4200D92E46A7
:102D000020443246414600F097FA94F8060240F01B
:102D1000400084F80602D4F80802B0443044C4F8F5
:102D20000802D9F800008119AD1BC9F80010002D68
:102D30007FF443AFD4E98201884201D9C4F80C0280
:102D400094F8060240F0200084F80602002029E7EB
:102D50002DE9FF474FF000090746C0F800901646DE
:102D6000084600F0F4F9050003D50B2004B0BDE8D7
:102D7000F0878A4850F82540A4B13C6094F80002DE
:102D800028B194F80102FFF773FAC1070CD084F858
:102D90000092E8B284F80102FFF73AFAC10708D0BE
:102DA0000320E3E70C20E1E70EB1400704D4002044
:102DB000DCE71EB1400701D50A20D7E700252946E8
:102DC0002046FEF79FFF012823D100204FEA0D0780
:102DD00004EB001191F8C22101F5DF712AB10A7AE2
:102DE000D1F8091042EA012100E0002147F8201043
:102DF000401C0428ECD3002657F826502DB1294654
:102E00002046FEF77FFF08B909E00220761C042E59
:102E1000F2D3032801D0E0BB01E00120A6E7B4F81B
:102E20000B00B0F5007F60D1E28A2AB994F8240043
:102E3000D4F8251040EA0122C4F81822217C84F835
:102E40000312012901D002294FD1607B514384F83C
:102E50000202F0B1431E184247D1B4F81130A4F871
:102E600008321E0741D1B4F813602EB994F82060DF
:102E7000D4F8217046EA0726B4F80EC0BCF1000F62
:102E800033D00CEB010707EB1317BE422DD3F61B13
:102E900000E02AE0B6FBF0F038B3012640F6F67801
:102EA000404500D302264FF6F678404500D303266E
:102EB000801C2F44C4F82872AC44C4F81402C4E93E
:102EC000875C032E13D083B16144C4F82412022E10
:102ED00019D000F0010100EB400001EB500000BFF1
:102EE00000F2FF10B2EB502F0FD20D203EE7002B67
:102EF000FBD194F82C10D4F82D30800041EA032146
:102F0000C4F82412ECE74000EAE74FF0FF30C4F8C1
:102F10001002C4F80C02802084F80502032E30D180
:102F2000208E01282DD12046691C00F095F940BB68
:102F300084F80592B4F8FE01A0F52A41553920D154
:102F40002078D4F8011040EA01201549884218D1B0
:102F500094F8E401D4F8E51140EA012011498842CF
:102F60000FD194F8E801D4F8E91140EA0120C4F83F
:102F7000100294F8EC01D4F8ED1140EA0120C4F8F5
:102F80000C02064984F80062091F0888401C08806A
:102F9000A4F806022046FEF707FF08E734000020E9
:102FA000525261417272416173B5044601990878C9
:102FB0002F2801D05C2801D1491C01910025C4F8BB
:102FC000085201980078202806D200212046FFF7F9
:102FD000D3F8C4F814527CBD01A92046FEF76AFF5D
:102FE0000028F8D100212046FFF7C6F820BB00BF1B
:102FF000D4F81012D4F8000200F02EF9E0B9D4F899
:1030000014120A7832B1CA7A12070FD40A23D4F8FC
:10301000182203E004200FE05B1E06D311F8015BC9
:1030200012F8016BAD1BF7D000E02DB10021204656
:10303000FEF7D8FF0028DBD0D4F81812C97A28B1DF
:103040000428C8D14907C6D405207CBD4907FCD453
:10305000D4F81412C87AC006F6D5D4F8000200F0ED
:10306000BFF8C4F80802B7E713B564230122694624
:103070000548FEF76DF820B10348FDF7D0FFFEF7D5
:1030800057F900981CBD0000F00400202DE9F04124
:103090000D46044602290DD3D4F81402A84209D9DA
:1030A00094F800024FF0FF36012807D002282AD0FA
:1030B000032836D001263046BDE8F081D4F820023E
:1030C00005EB550700EB5721204600F0C5F8002816
:1030D000F1D1C7F308007F1C14F80080D4F8200257
:1030E00000EB5721204600F0B7F80028E3D1C7F3E2
:1030F0000800215C48EA0120E90701D00609DAE767
:10310000C0F30B06D7E7D4F8200200EB15212046C8
:1031100000F0A2F80028CED1E8B204EB4000068807
:10312000C9E7D4F8200200EBD511204600F094F84E
:103130000028C0D140F2FF1000EA85002044017849
:10314000D0F8010041EA002020F07046B3E710B546
:1031500004464FF0FF302268002A13D0114600E0E9
:10316000491C0B78212B0ED33A2BF9D112F8013BD5
:10317000303B0A2B06D28A4204D1002B02D1491CD3
:103180001846216010BD002010BD0000F0B5134AA4
:10319000D0F8004200261568A54209D15368D0F83E
:1031A0000872BB4204D11389B0F80672BB420AD040
:1031B0000DB10020F0BD1460D0F808425460B0F8A2
:1031C000060210815681508931B10028F1D14FF4A7
:1031D000807050810120F0BD401CFAE730050020CE
:1031E0000246488B92F80022032A02D1898A40EADB
:1031F00001407047FDF76AFAFEF719FBFEF732F857
:10320000FEF796F80A48FEF737FCFDF7FFFFFFF7D9
:1032100093F8FFF747F8FDF72DF8064C4FF47A7551
:1032200004212046FDF738FA2846FDF7B5F8F7E700
:103230000C3600080014014004E000BF11F8013B07
:1032400000F8013B521EF9D27047C9B201E000F804
:10325000011B521EFBD2704770B50546D0F82C02F8
:103260000C460026A04210D0284600F026F90600A1
:103270000BD195F80102012322462946FEF7EAFF09
:1032800008B1741E0126C5F82C42304670BD2DE9E8
:10329000F04717460D460446022903D3D4F814021A
:1032A000A84202D80220BDE8F08794F8001207F087
:1032B000FF084FF00109012920D0022950D003292D
:1032C000F0D1D4F8200200EBD5112046FFF7C4FF5F
:1032D0000028E8D140F2FF1101EA85010A194FF0F8
:1032E0007043D2F8011003EA0121394311700B0A2F
:1032F00053700B0C9370090ED17041E0D4F820028A
:1033000005EB550600EB56212046FFF7A5FF0028E8
:10331000C9D1C6F30800761C2044E90703D0017820
:1033200068F31F1100E03946017084F80492D4F864
:10333000200200EB56212046FFF78EFF0028B2D175
:10334000C6F308012144EA0702D0C7F3071205E0DB
:103350000A78C7F3032302F0F0021A430A700FE061
:10336000D4F8200200EB15212046FFF775FF002856
:1033700099D1E9B204EB41013A0A81F800804A7020
:1033800084F804928FE72DE9F0410F4606460229A2
:1033900017D3D6F81402B84213D9002523E03946D2
:1033A0003046FFF773FE040021D0012C09D0601CC9
:1033B00009D0002239463046FFF769FF050016D1D3
:1033C00003E0022513E0012511E0D6F81002411CAC
:1033D00008D0401CC6F8100296F8050240F0010023
:1033E00086F805022746D6F81402B842D7D82846F0
:1033F000BDE8F08181760A0AC2760A0C0275090ED0
:103400004175704770B5044600F057F8050052D179
:1034100094F80002032846D194F80502012842D10D
:10342000420200212046FFF710FF552084F8FE01DC
:10343000AA2084F8FF015220207060706120A070E3
:103440004121E170722284F8E42184F8E52184F8B6
:10345000E61184F8E701D4F8100284F8E801010AC3
:1034600084F8E911010C84F8EA11000E84F8EB01EC
:10347000D4F80C0284F8EC01010A84F8ED11010C77
:1034800084F8EE11000E84F8EF01D4F81C22012319
:10349000521CC4F82C2294F801022146FEF7F4FED7
:1034A000002084F80502002294F801021146FEF77C
:1034B000C3FE00B10125284670BD2DE9F041044648
:1034C00090F80402002728B3D4F82C5294F8010293
:1034D00001232A462146FEF7D7FE08B1012719E04D
:1034E000002084F80402D4F82002D4F81812281A14
:1034F00088420FD294F803620AE0D4F8180201233C
:10350000054494F801022A462146FEF7BDFE761EC8
:10351000022EF2D23846BDE8F08110B588B1D0F85D
:10352000001271B191F800225AB1B1F80622B0F838
:103530000402824205D191F80102FEF799FEC0070C
:1035400000D0092010BD00000000000000000102B2
:10355000030406070809000000000102030480813B
:1035600082838485868788898A8B8C8D8E8F9091C3
:103570009293949596979899AD9B8C9DAE9FA02120
:10358000A2A3A4A5A6A7A8A9AAABACADAEAFB0B1A3
:10359000B2B3B4B5B6B7B8B9BABBBCBDBEBFC0C193
:1035A000C2C3C4C5C6C7C8C9CACBCCCDCECFD0D183
:1035B000D2D3D4D5D6D7D8D9DADBDCDDDEDFC0C1B3
:1035C000C2C3C4C5C6C7C8C9CACBCCCDCECFD0D163
:1035D000D2D3D4D5D6F7D8D9DADBDCDDDE9F000430
:1035E00000020001800040002000100008000400DC
:1035F0000200000000800040002000100008004091
:103600000020001000080004000200000D0A0D0A4E
:10361000232323232323232323232323232323237A
:10362000232323232323232048414C204C69626118
:1036300072792053442043617264205350492046DC
:10364000415446532044656D6F20232323232323B5
:10365000232323232323232323232323232323233A
:10366000232323232323232323230D0A00000000E5
:1036700090360008000000203C000000B81A000846
:10368000CC3600083C0000200C090000C81A0008D5
:1036900001000000E11900085B1A0008451A000843
:1036A0005F1A0008411A0008000000000000000036
:1036B0000100000010000000000000000024F400E1
:0C36C000000000000000000000000000FE
:04000005080000ED02
:00000001FF
