:020000040800F2
:1000000010050020010100089B020008970200086B
:1000100099020008EB0100080D0B00080000000029
:100020000000000000000000000000005908000867
:10003000ED01000800000000150300081D0900087C
:100040001B0100081B0100081B0100081B01000820
:100050001B0100081B0100081B0100081B01000810
:100060001B0100081B0100081B0100081B01000800
:100070001B0100081B0100081B0100081B010008F0
:100080001B0100081B0100081B0100081B010008E0
:100090001B0100081B0100081B0100081B010008D0
:1000A0001B0100081B0100081B0100081B010008C0
:1000B0001B0100081B0100081B0100081B010008B0
:1000C0001B0100081B0100081B0100081B010008A0
:1000D0001B010008710900081B0100081B01000832
:1000E0001B0100081B0100081B010008DFF80CD0F1
:1000F00000F04AF800480047050E000810050020EF
:100100000648804706480047FEE7FEE7FEE7FEE7B1
:10011000FEE7FEE7FEE7FEE7FEE7FEE7210900084F
:10012000ED0000082DE9F05F0546002092469B4651
:1001300088460646814640241BE0284641464746FD
:10014000224600F042F853465A46C01A914110D355
:1001500011461846224600F029F82D1A67EB0108CF
:100160004F4622460120002100F020F817EB00093D
:100170004E41201EA4F10104DFDC484631462A46E8
:100180004346BDE8F09F0000064C074D06E0E068DE
:1001900040F0010394E8070098471034AC42F6D3CE
:1001A000FFF7A8FF300F0008500F0008202A04DBDB
:1001B000203A00FA02F1002070479140C2F120037A
:1001C00020FA03F3194390407047202A04DB203AB9
:1001D00021FA02F00021704721FA02F3D040C2F167
:1001E00020029140084319467047FEE7704700001F
:1001F000F0B5CA78002502F00F03D20601D58A783F
:1002000013430A784FF00F0E12F0FF0F4FF0010268
:100210001CD004680F8802FA05F63740B74211D1A6
:100220004FEA850C0EFA0CF724EA070703FA0CF4E0
:100230003C43CF78282F02D0482F02D002E04661FD
:1002400000E006616D1C082DE4D304600C88FF2CCF
:100250001ED944685FF0000606F1080702FA07F5A8
:100260000F882F40AF420FD14FEA860C0EFA0CF7E1
:10027000BC4303FA0CF73C43CF78282F00D14561EB
:10028000CF78482F00D10561761C082EE4D3446056
:10029000F0BD01617047FEE7FEE7704770B50F23C0
:1002A000C47801780122F4B1144C2468457804F430
:1002B000E064C4F5E064240AC4F10406E3408478F1
:1002C000B5401C402C4301F1E021230181F80034AA
:1002D000007800F01F018A404009800000F1E02012
:1002E000C0F8002170BD01F01F0082404809800065
:1002F00000F1E020C0F8802170BD00000CED00E0AE
:100300000249084302490860704700000000FA05EE
:100310000CED00E070470000044A0029916901D00B
:10032000014300E0814391617047000000100240EA
:1003300030B51F494A6812F00C031E4A03D0042B43
:1003400001D0082B21D002604A680F231A4C03EA1F
:100350001212A35C0268DA4042604B68072505EA86
:100360001323E35C22FA03F383604B6805EAD3238B
:10037000E35CDA40C2604968032303EA9131231F3A
:10038000595CB2FBF1F1016130BD4A684B6802F47F
:1003900070124FF0020413F4803F04EB924202D03B
:1003A0004B689B0301D5054B00E0024B5A43CAE75B
:1003B0000010024000127A001800002000093D00E1
:1003C00003490120C1F88C01FF2000F00BBA0000A6
:1003D0000000214270B5054601220021092000F0ED
:1003E00053F9040004D11021284600F0FFF8044618
:1003F000FFF7E6FF0CB1012070BD002070BD70B5A5
:10040000054640F6FF7401E0641EA4B2FF2000F030
:1004100029F9A84202D0002CF6D102E00CB100204C
:1004200070BDFF2070BD1FB56846FFF7D3FF10B148
:10043000002004B010BD9DF800100120B0EB911F0A
:1004400009D19DF808209DF8091000EB022008440E
:1004500000048009EDE79DF805009DF80A1000F002
:100460000F0000EBD1109DF809109DF8072001F056
:10047000030100EB41019DF80800800900EB8200B8
:100480009DF8062002F0030200EB8220401CC91FE9
:100490008840CEE72DE9F84300F0C2F8382000F09C
:1004A000C9F90024FF2000F09DF9641CA4B20A2CB5
:1004B000F8D3142400219522084600F0E5F80546FB
:1004C000012802D0641EA4B2F4D2474E0027012DA9
:1004D00037707AD187224FF4D571082000F0D4F814
:1004E0004FF6FE7801281ED001220021372000F0AF
:1004F000CBF801220021292000F0C6F801284FD8AE
:1005000002203070444601220021372000F0BCF860
:1005100001220021292000F0B7F805004DD0641E0B
:10052000A4B2F0D249E000246F46FF2000F09AF810
:100530003855641CA4B2042CF7D39DF8020001289E
:1005400043D19DF80300AA283FD144464FF080488C
:1005500001220021372000F097F80122414629208E
:1005600000F092F8050002D0641EA4B2F0D2B4B13B
:10057000012200213A2000F087F880B90024FF20F2
:1005800000F070F83855641CA4B2042CF7D39DF821
:100590000000400601D5062000E00420307014E081
:1005A00001203070444601220021104600F06CF812
:1005B000050002D0641EA4B2F5D22CB10122510272
:1005C000102000F061F800B13770FFF7F9FE00204D
:1005D00000F030F9307810B10020BDE8F8830DB19B
:1005E0002846FAE7AA20F8E72E00002070B5044656
:1005F0000D46FE20FFF703FF30B1012070BD00BFA4
:1006000000F0F0F804F8010B6D1EADB24FF0FF00E2
:10061000F6D200F0E7F8FF2000F0E4F8002070BD0B
:1006200038B501210420FFF777FE0820ADF800005F
:1006300010208DF803000320084C8DF80200694655
:100640002046FFF7D5FD08212046FFF722FE00F0E7
:100650008BF803490120C1F88C0138BD0008014026
:100660000000214200F0BEB8064910B50020C1F8D4
:100670008C0100F038F8002802D0FFF7A1FE01201D
:1006800010BD00000000214270B515460C4606461C
:10069000FFF796FEFFF7E8FF08B1FF2070BD46F0B8
:1006A000400000F09FF8200E00F09CF8C4F30740D3
:1006B00000F098F8C4F3072000F094F8E0B200F0DE
:1006C00091F8284600F08EF80C2E02D1FF2000F0A1
:1006D00089F81F24FF20FFF7C5FF0106DED5641E41
:1006E000E4B2F7D270BD70B500246FF07F45FF20F3
:1006F000FFF7B8FFFF2804D0641CAC42F7D30120F9
:1007000070BD002070BD0029018802D041F0400179
:1007100001E021F04001018070470246002012896B
:100720000A4200D00120704780897047818170475C
:1007300030B502884C8802F441530A88CD882243A0
:100740008C882C4322430C8922434C8922438C8978
:100750002243CC8922431A430280828B22F4006216
:100760008283098A018230BD38B5012141F204003B
:10077000FFF7D2FDE020ADF8000018208DF803004F
:100780000320154C8DF8020069462046FFF730FD26
:10079000E0212046FFF77DFD104800214FF48272D2
:1007A0000180428081800222C280012202815202A5
:1007B000428138228281C18107210182084C014691
:1007C0002046FFF7B5FF01212046FFF79CFFFF20E1
:1007D00000F008F838BD000000080140FC000020CF
:1007E0000030014070B506460024114D03E0641C42
:1007F000E4B2C82C0FD802212846FFF78EFF00284C
:10080000F5D031462846FFF791FF002405E0641C2F
:10081000E4B2C82C01D9002070BD01212846FFF7A1
:100820007CFF0028F3D02846FFF77EFFC0B270BDE2
:100830000030014010B50649064C88812046FFF77C
:1008400077FF2046BDE810400121FFF75CBF0000A4
:10085000FC00002000300140704700000CB5002172
:10086000264801910091026842F4803202604FF400
:10087000A063026802F400320092019A521C0192B5
:10088000009A12B9019A9A42F3D10268920333D5C1
:10089000012100911A490A6842F010020A600A68B0
:1008A00022F003020A600A6842F002020A6041680C
:1008B000416041684160416841F480614160416844
:1008C00021F47C114160416841F4E8114160016804
:1008D00041F08071016001688901FCD5416821F017
:1008E00003014160416841F0020141604168C1F388
:1008F00081010229FAD10CBD00910CBD001002400B
:10090000002002404FF0E0210428086903D020F0C5
:1009100004000861704740F00400FAE770470000E7
:100920000F4810B5016841F00101016041680D4AAE
:100930001140416001680C4A11400160016821F4D6
:1009400080210160416821F4FE0141604FF41F01E4
:100950008160FFF783FF05494FF00060086010BD1C
:10096000001002400000FFF8FFFFF6FE08ED00E077
:1009700070B5154C40F22551204600F035F800289E
:100980000ED0204600F0BEF8C2B2104801880B0419
:1009900006D44C044FF0000306D50A2A01D0038088
:1009A00070BD41F400410DE00D2A09D0C1F30D04E2
:1009B000074D491C89B22A550180C729EFD870BD5F
:1009C00041F48041018070BD003801402C000020BE
:1009D000340000200029818902D041F4005101E057
:1009E00021F400518181704730B501F01F020124CC
:1009F0000025C1F3421304FA02F2012B0FD0022B9F
:100A00000FD0838A4FEA11210088134204FA01F4BF
:100A100000EA040001D000B10125284630BD8389D9
:100A2000F0E7038AEEE710B5C1F3421301F01F04AB
:100A30000121A140012B07D0022B07D01430002A3E
:100A4000026805D00A4304E00C30F8E71030F6E7FE
:100A50008A43026010BD000030B50446008A85B0AC
:100A60000D464CF6FF710840E98801432182A189B7
:100A70004EF6F3100140A8882A8910436A890A4378
:100A80001043A081A08A4FF6FF410840A989014385
:100A9000A1826846FFF74CFC1948844201D10398B3
:100AA00000E00298A189090400EBC00101EB0010ED
:100AB000296801D5490000E08900B0FBF1F064220B
:100AC000B0FBF2F109010B096FF018056B4300EB65
:100AD0008300A3891D044FF0320306D503EBC00049
:100AE000B0FBF2F000F0070005E003EB0010B0FBF4
:100AF000F2F000F00F000843208105B030BD000087
:100B0000003801408088C0F308007047FEE700000D
:100B10000FB4054B10B503A9044A029800F018F869
:100B200010BC5DF814FB0000ED0D00083000002043
:100B300002E008C8121F08C1002AFAD170477047A6
:100B4000002001E001C1121F002AFBD17047000004
:100B50002DE9FF4F8BB09A460F460446002606E06B
:100B600025280BD052460D999047641C761C20789E
:100B70000028F5D10FB03046BDE8F08F0025A9461A
:100B800001227D4900E0054314F8013F203B02FAB1
:100B900003F00842F7D120782E2817D114F8010F5E
:100BA00045F004052A280ED06FF02F022078A0F11E
:100BB000300109290AD809EB890102EB410100EB58
:100BC0000109641CF2E757F8049B641C20786C2828
:100BD0000DD004DC4C2812D06A2811D104E074280E
:100BE0000DD07A280CD10AE045F4001507E06178B1
:100BF00045F48015814202D1641C05F58015641C02
:100C0000207869283ED006DC0028B3D063280BD0BA
:100C1000642804D136E0732810D075285CD0524681
:100C20000D999047761CA5E017F8040B8DF800008D
:100C300000208DF80100E846012003E057F8048BFE
:100C40004FF0FF3069074FF0000501D40AE06D1C3A
:100C50004D450DDA8542FADB18F805100029F6D16A
:100C600006E06D1C8542FCDB18F805100029F8D160
:100C70002E4404E018F8010B52460D9990476D1E62
:100C8000F8D277E000200A90C5F302504FF00A0B2B
:100C900002280CD001CFC117021E71F100020CDA3C
:100CA0000023D0EB030063EB01012D2208E0FF1DC0
:100CB00027F00707F7E80201EEE72A0504D52B2203
:100CC0008DF82420012203E0EA070FD02022F7E765
:100CD0000DF12008089218E000200A90C5F3025098
:100CE0004FF00A0B022803D001CF00210022EFE7CA
:100CF000FF1D27F00707F7E80201F7E75A460A9BAE
:100D0000FFF710FA303208F8012D50EA0102F5D150
:100D1000ADEB080000F1200B680701D44FF001098A
:100D2000D94502DDA9EB0B0000E00020814600253B
:100D300006E009A85246405D0D9990476D1C761C4F
:100D400008988542F5DB04E0302052460D99904723
:100D5000761CB9F10001A9F10109F5DC05E018F8EC
:100D6000010B52460D999047761CBBF10001ABF187
:100D7000010BF4DC641CFAE60928010010B56FF0E1
:100D80000400FFF7BFFD094809490068B0FBF1F016
:100D9000C1B2084801EB41020170C2EBC1114FF62C
:100DA000FF7202EAC101418010BD00000000002076
:100DB00000127A00280000200B49498848434FF070
:100DC000E021486100228A61086940F00100086161
:100DD0000869C30701D0C003FAD5086920F00100F3
:100DE00008618A61704700002800002004490A88D1
:100DF0005206FCD5024AC1B2121D11807047000094
:100E000000380140FFF78CFD4FF4A060FFF778FA3F
:100E1000FFF7B4FF4FF4E13000F03AF84FF47A7482
:100E200005E00BA0FFF774FE2046FFF7C5FFFFF7B4
:100E300031FB0028F5D1FFF7F6FAC10DC0F3CB2244
:100E400042EA01320B0D0BA0FFF762FEFEE7000045
:100E500023235B5761726E696E675D3A207364206D
:100E60006361726420696E6974206661696C65648F
:100E7000210D0A00232053442043617264205369EA
:100E80007A653A20256C6C644D420D0A0000000022
:100E900070B5054686B0012144F20400FFF73CFA24
:100EA0004FF40070ADF8100003248DF812401820A4
:100EB0001D4E8DF8130004A93046FFF799F930153F
:100EC000ADF8100004208DF8130004A93046FFF798
:100ED0008FF925208DF814008DF815408DF81640F7
:100EE00001208DF8170005A8FFF7D8F90020ADF80C
:100EF0000400ADF80600ADF80800ADF80C000C20B9
:100F00000A4CADF80A00009569462046FFF7A4FD9B
:100F1000012240F225512046FFF785FD01212046A0
:100F2000FFF758FD06B070BD0008014000380140D1
:100F3000500F00080000002034000000300B0008B3
:100F4000840F000834000020DC040000400B00087F
:100F500000A24A0400000000000000000102030497
:100F60000607080902040608000000000102030445
:100F70000102030406070809000000000000000049
:040F8000000000006D
:04000005080000ED02
:00000001FF
