:020000040800F2
:10000000F804002001010008F3010008EF010008D6
:10001000F101000849010008CD05000800000000BA
:1000200000000000000000000000000019030008AC
:100030004B010008000000006D020008DD0300080D
:100040001B0100081B0100081B0100081B01000820
:100050001B0100081B0100081B0100081B01000810
:100060001B0100081B0100081B0100081B01000800
:100070001B0100081B0100081B0100081B010008F0
:100080001B0100081B0100081B0100081B010008E0
:100090001B0100081B0100081B0100081B010008D0
:1000A0001B0100081B0100081B0100081B010008C0
:1000B0001B0100081B0100081B0100081B010008B0
:1000C0001B0100081B0100081B0100081B010008A0
:1000D0001B010008310400081B0100081B01000877
:1000E0001B0100081B0100081B010008DFF80CD0F1
:1000F00000F018F80048004729060008F80400201E
:100100000648804706480047FEE7FEE7FEE7FEE7B1
:10011000FEE7FEE7FEE7FEE7FEE7FEE7E103000895
:10012000ED000008064C074D06E0E06840F00103D2
:1001300094E8070098471034AC42F6D3FFF7DAFF93
:10014000E406000804070008FEE77047F0B5CA7827
:10015000002502F00F03D20601D58A7813430A78EE
:100160004FF00F0E12F0FF0F4FF001021CD0046889
:100170000F8802FA05F63740B74211D14FEA850CD5
:100180000EFA0CF724EA070703FA0CF43C43CF7885
:10019000282F02D0482F02D002E0466100E006611D
:1001A0006D1C082DE4D304600C88FF2C1ED9446814
:1001B0005FF0000606F1080702FA07F50F882F40E6
:1001C000AF420FD14FEA860C0EFA0CF7BC4303FA8C
:1001D0000CF73C43CF78282F00D14561CF78482FCA
:1001E00000D10561761C082EE4D34460F0BDFEE723
:1001F000FEE7704770B50F23C47801780122F4B18F
:10020000144C2468457804F4E064C4F5E064240ADE
:10021000C4F10406E3408478B5401C402C4301F14E
:10022000E021230181F80034007800F01F018A40AA
:100230004009800000F1E020C0F8002170BD01F00D
:100240001F0082404809800000F1E020C0F88021B2
:1002500070BD00000CED00E002490843024908604F
:10026000704700000000FA050CED00E07047000048
:10027000044A0029916901D0014300E08143916162
:10028000704700000010024030B51F494A6812F064
:100290000C031E4A03D0042B01D0082B21D002608E
:1002A0004A680F231A4C03EA1212A35C0268DA4070
:1002B00042604B68072505EA1323E35C22FA03F347
:1002C00083604B6805EAD323E35CDA40C260496887
:1002D000032303EA9131231F595CB2FBF1F1016161
:1002E00030BD4A684B6802F470124FF0020413F4F8
:1002F000803F04EB924202D04B689B0301D5054B33
:1003000000E0024B5A43CAE70010024000127A0094
:100310001800002000093D00704700000CB50021C6
:10032000264801910091026842F4803202604FF445
:10033000A063026802F400320092019A521C0192FA
:10034000009A12B9019A9A42F3D10268920333D506
:10035000012100911A490A6842F010020A600A68F5
:1003600022F003020A600A6842F002020A60416851
:10037000416041684160416841F480614160416889
:1003800021F47C114160416841F4E8114160016849
:1003900041F08071016001688901FCD5416821F05C
:1003A00003014160416841F0020141604168C1F3CD
:1003B00081010229FAD10CBD00910CBD0010024050
:1003C000002002404FF0E0210428086903D020F00B
:1003D00004000861704740F00400FAE7704700002D
:1003E0000F4810B5016841F00101016041680D4AF4
:1003F0001140416001680C4A11400160016821F41C
:1004000080210160416821F4FE0141604FF41F0129
:100410008160FFF783FF05494FF00060086010BD61
:10042000001002400000FFF8FFFFF6FE08ED00E0BC
:1004300070B5154C40F22551204600F035F80028E3
:100440000ED0204600F0BEF8C2B2104801880B045E
:1004500006D44C044FF0000306D50A2A01D00380CD
:1004600070BD41F400410DE00D2A09D0C1F30D0427
:10047000074D491C89B22A550180C729EFD870BDA4
:1004800041F48041018070BD003801402C00002003
:10049000300000200029818902D041F4005101E0A0
:1004A00021F400518181704730B501F01F02012411
:1004B0000025C1F3421304FA02F2012B0FD0022BE4
:1004C0000FD0838A4FEA11210088134204FA01F405
:1004D00000EA040001D000B10125284630BD83891F
:1004E000F0E7038AEEE710B5C1F3421301F01F04F1
:1004F0000121A140012B07D0022B07D01430002A84
:10050000026805D00A4304E00C30F8E71030F6E743
:100510008A43026010BD000030B50446008A85B0F1
:100520000D464CF6FF710840E98801432182A189FC
:100530004EF6F3100140A8882A8910436A890A43BD
:100540001043A081A08A4FF6FF410840A9890143CA
:10055000A1826846FFF798FE1948844201D10398AA
:1005600000E00298A189090400EBC00101EB001032
:10057000296801D5490000E08900B0FBF1F0642250
:10058000B0FBF2F109010B096FF018056B4300EBAA
:100590008300A3891D044FF0320306D503EBC0008E
:1005A000B0FBF2F000F0070005E003EB0010B0FB39
:1005B000F2F000F00F000843208105B030BD0000CC
:1005C000003801408088C0F308007047FEE702E071
:1005D00008C8121F08C1002AFAD1704770470020CE
:1005E00001E001C1121F002AFBD1704710B56FF066
:1005F0000400FFF7E7FE094809490068B0FBF1F085
:10060000C1B2084801EB41020170C2EBC1114FF6C3
:10061000FF7202EAC101418010BD0000000000200D
:1006200000127A0028000020FFF7DAFE4FF4A060E5
:10063000FFF712FEFFF7DAFF4FF4E13000F002F8A7
:10064000FEE7000070B5054686B0012144F20400C3
:10065000FFF70EFE4FF40070ADF8100003248DF884
:10066000124018201D4E8DF8130004A93046FFF7E4
:100670006DFD3015ADF8100004208DF8130004A9AD
:100680003046FFF763FD25208DF814008DF81540E6
:100690008DF8164001208DF8170005A8FFF7AAFD78
:1006A0000020ADF80400ADF80600ADF80800ADF884
:1006B0000C000C200A4CADF80A0000956946204653
:1006C000FFF72AFF012240F225512046FFF70BFFDA
:1006D00001212046FFF7DEFE06B070BD0008014094
:1006E000003801400407000800000020300000002E
:1006F000CE0500083407000830000020C8040000C0
:10070000DE05000800A24A0400000000000000000E
:10071000010203040607080902040608000000009D
:100720000102030401020304060708090000000097
:0407300000000000C5
:04000005080000ED02
:00000001FF
