:020000040800F2
:1000000010040020010100089306000813020008F4
:10001000910600080F020008850B00080000000090
:10002000000000000000000000000000A50A000819
:10003000110200080000000095060008A70A000849
:100040001B0100081B0100081B0100081B01000820
:100050001B0100081B0100081B0100081B01000810
:100060001B0100081B0100081B0100081B01000800
:100070001B0100081B0100081B0100081B010008F0
:100080001B0100081B0100081B0100081B010008E0
:100090001B0100081B0100081B0100081B010008D0
:1000A0001B0100081B0100081B0100081B010008C0
:1000B0001B0100081B0100081B0100081B010008B0
:1000C0001B0100081B0100081B0100081B010008A0
:1000D0001B0100081B0100081B0100081B01000890
:1000E0001B0100081B0100081B010008DFF80CD0F1
:1000F00000F05CF800480047A50E0008100400203E
:100100000648804706480047FEE7FEE7FEE7FEE7B1
:10011000FEE7FEE7FEE7FEE7FEE7FEE73D0B000831
:10012000ED000008D2B201E000F8012B491EFBD21D
:1001300070470022F6E710B513460A4604461946F2
:10014000FFF7F0FF204610BD2DE9F05F05460020C7
:1001500092469B4688460646814640241BE0284638
:1001600041464746224600F042F853465A46C01AD6
:10017000914110D311461846224600F029F82D1A55
:1001800067EB01084F4622460120002100F020F8CD
:1001900017EB00094E41201EA4F10104DFDC4846A4
:1001A00031462A464346BDE8F09F0000064C074D05
:1001B00006E0E06840F0010394E807009847103437
:1001C000AC42F6D3FFF796FF2C1000084C10000845
:1001D000202A04DB203A00FA02F100207047914007
:1001E000C2F1200320FA03F3194390407047202AFC
:1001F00004DB203A21FA02F00021704721FA02F3D1
:10020000D040C2F120029140084319467047FEE7F2
:100210007047FEE7044908B58A6902438A61896923
:100220000140009108BD000000100240044908B5DB
:100230008A6902438A6189690140009108BD000012
:1002400000100240044908B58A6902438A6189693D
:100250000140009108BD000000100240F0B50A689E
:10026000C2F30F2595FAA5F2B2FA82F369E00122F2
:100270009A402A4264D0082B03D240F201129A40DD
:1002800006E0A3F108024FF00114944044F08062AC
:1002900092FAA2F700EB1264B7FA87F74FEA870CDD
:1002A0000F27266807FA0CF7BE4392FAA2F7D1F897
:1002B00004E0B7FA87F7BF000EFA07FE46EA0E061B
:1002C00026600E69C7684FEA122C9CFAACFCBCFA97
:1002D0008CFC27EA122706FA0CF63743C7604E68F3
:1002E000012E01D0092E2BD192FAA2F7B7FA87F787
:1002F0004FEA870C032707FA0CF72668D1F808E0C5
:10030000BE4392FAA2F7B7FA87F7BF000EFA07FECC
:1003100092FAA2FC46EA0E06BCFA8CFC4FEA8C0E5E
:100320004FF0040C26600CFA0EFC92FAA2F2B2FA1C
:1003300082F2CF68920026EA0C0697403E43266080
:100340005B1C35FA03F292D10020F0BD4FF47A71B4
:10035000B0FBF1F14FF0E020491E416100218161C5
:1003600005210161704700B5034600F0BFF9186030
:1003700000F092F9586000F09DF99860586800F01C
:10038000A7F9D86000BD10B503680122C3F380133C
:100390002BBBD1E900231A43D1E9023423431A438A
:1003A0000B691A434B691A438B691A43CB691A4389
:1003B0000B6A1A4303684FF6BF74A3431A430260E3
:1003C00042684B6922F0040242EA134242600A6A20
:1003D000B2F5005F02D1898C89B20161002210461A
:1003E00010BD0000014908607047000004000020B3
:1003F0002DE9FF410446C0680D460126C0F3403098
:10040000F0BBE9686868E2680843296941F20C6357
:100410009A4311430843E060A868216921F44051E0
:10042000014321616869616921F44071014361619F
:100430006846FFF798FF2448844201D1039806E0FC
:100440002248844202D02248844238D10298B8B16E
:100450002A68AAB100EBC00101EB00119200B1FBC8
:10046000F2F36420B3FBF0F3B1FBF2F56FF0180781
:100470007B43002605EB8305322303EB051500E0E3
:100480001DE0B1FBF2F7B5FBF0F5B7FBF0F705F0B7
:10049000F00505EB0715B1FBF2F7B1FBF2F1B1FB8B
:1004A000F0F16FF01802514307EB810103EB0111EA
:1004B000B1FBF0F000F00F00284480B2A06004B05F
:1004C0003046BDE8F08100000038014000440040A3
:1004D0000048004008B54FF0E0210A690092421C34
:1004E00000D0401C0A69D20300D5401E0028F9D173
:1004F00008BD00002DE9F04385B014216846FFF7E0
:1005000018FE2020FFF786FE0420FFF783FE154F1C
:100510004FF484703861DFF85080042140F20449C0
:10052000C8F8101040F608000124032500268DE8C5
:10053000710069463846FFF791FE0C4869468DE820
:10054000710038460494FFF789FE01A9CDF80090A8
:1005500081E87000694640460494FFF77FFE05B0CD
:10056000BDE8F083000801400014014001000104CF
:1005700030B58FB028216846FFF7DBFD14210AA8AB
:10058000FFF7D7FD4FF48050FFF750FE0420FFF730
:100590004DFE4AF2A0000A9009200B90032000248F
:1005A000CDE90C04124D0AA92846FFF757FE44F284
:1005B00040000A9004200B900AA92846FFF74EFE3F
:1005C0004FF48270CDE900400220CDE902400120C5
:1005D0000490400205900820CDE906040A20CDE9E8
:1005E000084069460348FFF7CEFE0FB030BD00005B
:1005F000000801400030014030B58DB01C2105A835
:10060000FFF797FD14216846FFF793FD4FF48040F4
:10061000FFF718FE0420FFF715FE19480090092087
:10062000019003200024CDE90204164D69462846B6
:10063000FFF714FE144800900820019069460494C6
:100640002846FFF70BFE4FF4E130CDE905040C20FE
:10065000CDE9084007940A940B940C4C05A9204658
:10066000FFF7C6FE206920F490402061606920F009
:100670002A006061E06840F40050E0600DB030BDD9
:100680000200020400080140040004040038014094
:10069000FEE770477047000004494968044A01F0CA
:1006A000F0010909515CC840704700000010024089
:1006B000C40F000804494968044A01F4E06102EBF0
:1006C00011210978C840704700100240D40F00087B
:1006D00004494968044A01F4605102EBD1210978C8
:1006E000C840704700100240D40F00080648406818
:1006F00010F00C01054805D0042903D0082901D1C8
:1007000000F006B8704700000010024000127A00A6
:100710000B48416811F480320A4909D0B2F5803F94
:1007200006D14168084AC1F34041491CB2FBF1F1CE
:100730004068022200F4701002EB9040484370477A
:100740000010024000093D0000127A00034940F603
:100750000800C860FF2000F087B9000000080140D1
:1007600070B5054601220021092000F03DF9040082
:1007700004D11021284600F0F9F80446FFF7E6FFFF
:100780000CB1012070BD002070BD70B5054640F66B
:10079000FF7401E0641EA4B2FF2000F015F9A84226
:1007A00002D0002CF6D102E00CB1002070BDFF2079
:1007B00070BD1FB56846FFF7D3FF10B1002004B02D
:1007C00010BD9DF800100120B0EB911F09D19DF8DC
:1007D00008209DF8091000EB02200844000480095D
:1007E000EDE79DF805009DF80A1000F00F0000EB02
:1007F000D1109DF809109DF8072001F0030100EBCE
:1008000041019DF80800800900EB82009DF8062058
:1008100002F0030200EB8220401CC91F8840CEE793
:100820002DE9F84300F0BCF80024FF2000F01CF98B
:10083000641CA4B20A2CF8D3142400219522084683
:1008400000F0D2F80546012802D0641EA4B2F4D20A
:10085000454E0027012D37707AD187224FF4D5718C
:10086000082000F0C1F84FF6FE7801281ED00122C2
:100870000021372000F0B8F801220021292000F0E3
:10088000B3F801284FD802203070444601220021DD
:10089000372000F0A9F801220021292000F0A4F857
:1008A00005004DD0641EA4B2F0D249E000246F468A
:1008B000FF2000F089F83855641CA4B2042CF7D34B
:1008C0009DF80200012843D19DF80300AA283FD1DA
:1008D00044464FF0804801220021372000F084F880
:1008E00001224146292000F07FF8050002D0641E55
:1008F000A4B2F0D2B4B1012200213A2000F074F881
:1009000080B90024FF2000F05FF83855641CA4B2C1
:10091000042CF7D39DF80000400601D5062000E026
:100920000420307014E00120307044460122002180
:10093000104600F059F8050002D0641EA4B2F5D2AA
:100940002CB101225102102000F04EF800B1377096
:10095000FFF7FCFE307810B10020BDE8F8830DB140
:100960002846FAE7AA20F8E70000002070B5044600
:100970000D46FE20FFF709FF30B1012070BD00BF1A
:1009800000F022F804F8010B6D1EADB24FF0FF002D
:10099000F6D200F069F8FF2000F066F8002070BD84
:1009A00010B5FFF7E5FD0648016841F04001016020
:1009B000FF2000F059F8034940F60800C86010BD58
:1009C000003001400008014000F04EB8054910B564
:1009D0000820486100F037F8002802D0FFF7B6FE83
:1009E000012010BD0008014070B515460C460646B2
:1009F000FFF7ACFEFFF7EAFF08B1FF2070BD46F03D
:100A0000400000F031F8200E00F02EF8C4F307404B
:100A100000F02AF8C4F3072000F026F8E0B200F056
:100A200023F8284600F020F80C2E02D1FF2000F019
:100A30001BF81F24FF20FFF7C7FF0106DED5641E49
:100A4000E4B2F7D270BD70B500246FF07F45FF208F
:100A5000FFF7BAFFFF2804D0641CAC42F7D3012093
:100A600070BD002070BD000000210D4A02E0491C4D
:100A7000C8290BD89368C3F34003002BF7D0D0608C
:100A80004FF4C87304E0491C994201D9FF20704714
:100A9000906810F0010FF6D0D068C0B27047000027
:100AA0000030014070477047214810B5016821F0BF
:100AB000070141F00201016000681E48016841F42D
:100AC000803101600168C1F340410029FAD04168DA
:100AD00021F47C1141F4E8114160016841F080711A
:100AE00001600168C1F340610029FAD0416821F03A
:100AF000F0014160416821F4E06141F480614160AE
:100B0000416821F460514160416821F0030141F0E6
:100B100002014160416801F00C010829FAD1064C3C
:100B20002046FFF713FC2046BDE81040FFF75ABCF3
:100B3000002002400010024000A24A040D48016853
:100B400041F00101016041680B4A114041600168B8
:100B50000A4A11400160016821F480210160416866
:100B600021F4FE0141604FF41F0181600449C0037C
:100B700008607047001002400000FFF8FFFFF6FE1B
:100B800008ED00E0FEE700000FB4054B10B503A927
:100B9000044A029800F018F810BC5DF814FB00003D
:100BA000890E00080800002002E008C8121F08C1D2
:100BB000002AFAD170477047002001E001C1121FDE
:100BC000002AFBD1704700002DE9FF4F8DB09B46F6
:100BD0000F460446002606E025280BD05A460F99FA
:100BE0009047641C761C20780028F5D111B030465F
:100BF000BDE8F08F0025A8460122984900E0054392
:100C000014F8013F203B02FA03F00842F7D12078A4
:100C10002E2817D114F8010F45F004052A280ED00C
:100C20006FF02F022078A0F1300109290AD808EBD3
:100C3000880102EB410100EB0108641CF2E757F860
:100C4000048B641C20786C280DD004DC4C2812D056
:100C50006A2811D104E074280DD07A280CD10AE05A
:100C600045F4001507E0617845F48015814202D112
:100C7000641C05F58015641C2278692A45D008DCBF
:100C8000002AB3D0582A69D0632A10D0642A08D128
:100C90003BE0702A67D0732A13D0752A5CD0782A7B
:100CA0005CD010465A460F999047761CD3E017F84F
:100CB000040B8DF8000000208DF80100E9460120AA
:100CC00003E057F8049B4FF0FF3069074FF0000531
:100CD00001D40AE06D1C45450DDA8542FADB19F8AE
:100CE00005100029F6D106E06D1C8542FCDB19F8E1
:100CF00005100029F8D12E4404E019F8010B5A46DA
:100D00000F9990476D1EF8D2A5E00A200021CDE989
:100D10000801C5F3025002280DD001CFC117031EF0
:100D200071F100030DDA4FF0000CD0EB0C006CEB0E
:100D300001012D2308E0FF1D27F00707F7E8020156
:100D4000EDE72B0504D52B238DF8283001233BE05C
:100D5000EB0739D02023F7E70A2000E0102000211C
:100D6000CDE9080107E01020002145F00405CDE998
:100D700008014FF00808C5F3025002280FD001CF38
:100D800000214FF0000A2B071FD5702A0DD0DDE996
:100D900008C38CF0100C5CEA030C0CD015E0FF1DAE
:100DA00027F00707F7E80201EBE740228DF828203B
:100DB0004FF0010A0BE050EA010306D030238DF812
:100DC00028308DF8292002239A46582A04D024A2DC
:100DD0000DF120090B9209E026A2F9E7DDE90823CD
:100DE000FFF7B2F90B9B9B5C09F8013D50EA010249
:100DF000F4D1ADEB090020300890680701D44FF022
:100E000001080899884502DDA8EB010000E00020F8
:100E10008046002506E00AA85A46405D0F99904793
:100E20006D1C761C5545F6DB04E030205A460F99C0
:100E30009047761CB8F10001A8F10108F5DC05E047
:100E400019F8010B5A460F999047761C0899481ECD
:100E500008900029F4DC641CC5E6000009280100A4
:100E60003031323334353637383961626364656620
:100E700000000000303132333435363738394142E2
:100E8000434445460000000005490A68C2F3C01209
:100E9000002AFAD0024AC1B2121D11607047000048
:100EA0000038014008B52B48816941F0010181619A
:100EB000816901F001010091C16941F08051C16176
:100EC000C069254900F08050009008684FF6FF0285
:100ED0001040224A40F4A060104308602048416856
:100EE00021F0E0614160416841F080614160FFF7BD
:100EF000DBFDFFF7FFFAFFF77FFB1A48FFF744FE21
:100F00004FF47A7405E018A0FFF73EFE2046FFF785
:100F1000E1FAFFF785FC0028F5D1FFF74AFCC10D87
:100F2000C0F3CB25194845EA01350E0D017818A00C
:100F3000FFF72AFE2A4633461BA0FFF725FE25466B
:100F40001F4CE06880F48070E0602846FFF7C2FA2A
:100F5000F7E70000001002400CED00E00000FA0589
:100F600000000140DC0F000823235B5761726E69AB
:100F70006E675D3A207364206361726420696E69F4
:100F800074206661696C6564210D0A000000002010
:100F900023205344204361726420547970653A30B1
:100FA0007825580D0A000000232053442043617225
:100FB000642053697A653A256C6C644D420D0A00D1
:100FC00000080140000000000000000001020304CE
:100FD000060708090000000001020304232323235D
:100FE00023232323232323232323232323232323D1
:100FF000232323232323204C4C204C6962617279E4
:10100000205350492053442044656D6F20232323EF
:1010100023232323232323232323232323232323A0
:10102000232323232323230D0A0000004C10000850
:10103000000000200C000000A80B00085810000859
:101040000C00002004040000B80B000800000000A1
:081050000024F4000000000080
:04000005080000ED02
:00000001FF
